:020000040000FA
:100000000C947C010C94AD010C94AD010C94AD01E9
:100010000C94AD010C94AD010C94AD010C94AD01A8
:100020000C94AD010C94AD010C94AD010C94AD0198
:100030000C94AD010C94AD010C94AD010C94AD0188
:100040000C94AD010C94AD010C94AD010C94AD0178
:100050000C94AD010C94AD010C94AD010C944618B8
:100060000C94AD010C9410180C94E6170C94AD018F
:100070000C94AD010C94AD010C94AD010C94AD0148
:100080000C94AD010C94AD010C94AD010C94AD0138
:100090000C94AD010C94AD010C94AD010C94AD0128
:1000A0000C94AD010C94AD010C94AD010C94AD0118
:1000B0000C94AD010C94AD010C94AD010C94AD0108
:1000C0000C94AD010C94AD010C94AD010C94AD01F8
:1000D0000C94AD010C94AD010C94AD010C94AD01E8
:1000E0000C94AD010C9414020C94B90E0C94A10361
:1000F0000C94190C0C9497030C94720F0C94A90E89
:100100000C94030F0C947B030C94D3110C94310FBB
:100110000C94D5110C94871A0C9489030C94AF1B82
:100120000C94E4010C946A030C9485030C94500322
:100130000C946E1B0C942C1B0C9481030C949D034B
:100140000C94861B0C94D31B0C94621B0C942302FE
:100150000C94261B0C9445020C9431120C94D60E70
:100160000C94971B0C94A31B0C94441B0C946203DB
:100170000C9477030C94E7010C9438140C949303BB
:100180000C9477120C9437020C948F030C94890E04
:100190000C9427150C94501B0C9471030C94CA02F8
:1001A0000C947D020C94BB1B0C947B120C947A1B58
:1001B0000C9490180C940D0F0C94320F0C94660351
:1001C0000C94C71B0C9474120C946E030C941F0EA9
:1001D0000C944B030C94591B0C94381B0C94800EFC
:1001E00000000A0B02090C0D0E08070304010000B1
:1001F00000000000000000000000000000000000FF
:1002000000000000000000000000000012111000BB
:1002100000000000000000000000000000000000DE
:1002200000000000000000002200250028002B0034
:100230002E003100340002010000050108010B010D
:1002400000002100240027002A002D003000330088
:1002500001010000040107010A0105050505070564
:1002600008080808020202020A0A08080404040432
:10027000010101010101010103030303030303035E
:10028000040707070C0C0C0C0C0C0C0C02020202ED
:1002900006060606060606060B0B0B0B0B0B0B0BD6
:1002A0000102102020080810204010204080020188
:1002B000020108040201010204081020408080406D
:1002C000201008040201800402018040201008046C
:1002D000020108040201010204081020408001020A
:1002E0000408102040807C3C3E5E2B3D3F2F5B5D30
:1002F0003B2C2A225C00901811241FBECFEFD1E2C4
:10030000DEBFCDBF00E00CBF2DE0ACECB3E001C020
:100310001D92A734B207E1F713E0A0E0B2E0E8EAEB
:10032000F7E400E00BBF02C007900D92AC3CB107B0
:10033000D9F711E0CCE7D1E000E006C02197010930
:10034000802FFE010E946421CB37D10780E008078F
:10035000A9F70E9403190C94D2230C94000090E09A
:10036000FC01E056FD4F2491865A9D4FFC0184917B
:10037000882399F090E0880F991FFC01E05CFD4F05
:10038000A591B491FC01EA5DFD4F859194918FB7E1
:10039000F894EC91E22BEC938FBF089580917B0051
:1003A000877F80937B0080E480937C0080917A003B
:1003B000806480937A0080917A0086FDFCCF8091E2
:1003C000780090917900089580E991E00895AF92C6
:1003D000BF92CF92DF92EF92FF920F931F93CF9332
:1003E000DF936C017B018B01040F151FEB015E0194
:1003F000AE18BF08C017D10759F06991D601ED9129
:10040000FC910190F081E02DC6011995892B79F7B7
:10041000C501DF91CF911F910F91FF90EF90DF9079
:10042000CF90BF90AF900895FC01538D448D252F40
:1004300030E0842F90E0821B930B541710F0CF967E
:10044000089501970895FC01918D828D981761F0B0
:10045000A28DAE0FBF2FB11D5D968C91928D9F5FC7
:100460009F73928F90E008958FEF9FEF0895FC01A6
:10047000918D828D981731F0828DE80FF11D858D59
:1004800090E008958FEF9FEF0895FC01918D228DEC
:10049000892F90E0805C9F4F821B91098F73992771
:1004A000089586E39CE00E94450221E0892B09F42F
:1004B00020E0822F0895FC01A48DA80FB92FB11D53
:1004C000A35ABF4F2C91848D90E001968F7399278A
:1004D000848FA689B7892C93A089B1898C91837068
:1004E00080648C93938D848D981306C00288F38961
:1004F000E02D80818F7D80830895EF92FF920F938E
:100500001F93CF93DF93EC0181E0888F9B8D8C8DBF
:1005100098131AC0E889F989808185FF15C09FB7B3
:10052000F894EE89FF896083E889F9898081837076
:10053000806480839FBF81E090E0DF91CF911F9125
:100540000F91FF90EF900895F62E0B8D10E00F5F46
:100550001F4F0F731127E02E8C8D8E110CC00FB61C
:1005600007FCFACFE889F989808185FFF5CFCE01B4
:100570000E945B02F1CFEB8DEC0FFD2FF11DE35AD2
:10058000FF4FF0829FB7F8940B8FEA89FB89808137
:100590008062CFCFCF93DF93EC01888D8823B9F0B1
:1005A000AA89BB89E889F9898C9185FD03C080817E
:1005B00086FD0DC00FB607FCF7CF8C9185FFF2CFFB
:1005C000808185FFEDCFCE010E945B02E9CFDF91F4
:1005D000CF91089580E090E0892B29F00E9451028C
:1005E00081110E94000080E090E0892B49F080E0BA
:1005F00090E0892B29F00E94000081110E940000E8
:1006000080E090E0892B49F080E090E0892B29F090
:100610000E94000081110E94000080E090E0892B80
:1006200049F080E090E0892B29F00E9400008111C0
:100630000C9400000895282F30E0F901E052FE4F9D
:100640009491F901E056FD4F4491265A3D4FF9012E
:100650002491222309F435C0992311F1915092314C
:10066000F8F4E92FF0E08827E75CFC4F8F4F0C94FB
:1006700064216A036E034B03620366035003710334
:1006800077037B038103850389038F03930350035F
:1006900097039D03A103809180008F778093800052
:1006A000E22FF0E0EE0FFF1FEA5DFD4FA591B49140
:1006B0008FB7F894EC91611148C040954E234C934C
:1006C0008FBF0895809180008F7DE8CF809180005A
:1006D000877FE4CF84B58F7784BDE2CF84B58F7DEB
:1006E000FBCF8091B0008F778093B000D9CF8091FD
:1006F000B0008F7DF9CF809190008F77809390002C
:10070000CFCF809190008F7DF9CF80919000877F2F
:10071000F5CF8091A0008F778093A000C1CF80910A
:10072000A0008F7DF9CF8091A000877FF5CF8091C9
:1007300020018F7780932001B3CF809120018F7D9E
:10074000F9CF80912001877FF5CF4E2BB8CF3FB7EF
:10075000F8948091D9039091DA03A091DB03B091D2
:10076000DC0326B5A89B05C02F3F19F00196A11DFB
:10077000B11D3FBFBA2FA92F982F8827BC01CD01EB
:10078000620F711D811D911D42E0660F771F881F4A
:10079000991F4A95D1F708952FB7F8946091D50322
:1007A0007091D6038091D7039091D8032FBF0895FD
:1007B0008FB7F8948091CF038FBF089561E0FC015B
:1007C00084810E941B038091CE0381111092CE037D
:1007D00008958EBD00000DB407FEFDCF8EB50895BF
:1007E0008FEF0C94E9030F931F93CF93DF93EC01EA
:1007F0000E94CC038B010E94F0038F3F69F00E949E
:10080000CC03601B710B6C177D07A8F380E0DF91B0
:10081000CF911F910F91089581E0F9CF8CBD9DBDBF
:100820000895CF93DF93EC018091CE03811109C02D
:1008300081E08093CE038091D30C9091D40C0E94E0
:100840000E0460E08C81DF91CF910C941B038F929A
:100850009F92AF92BF92FF920F931F93CF93DF931C
:10086000EC01F62E49015A018E81882389F08F818F
:1008700098859C012F5F3F4F38872F8382309240AD
:1008800018F40E94F003F3CFCE010E94DE031E8213
:10089000CE010E9411048CE291E00E94F3038F2D9F
:1008A00080640E94E90308E110E0D501C401002E34
:1008B00004C0B695A795979587950A94D2F70E949C
:1008C000E90308501109083F8FEF180771F785E910
:1008D000FF2021F028E087E8F2128FEF0E94E90361
:1008E00010E00E94F0038A8787FF04C01F3F11F0C9
:1008F0001F5FF7CFDF91CF911F910F91FF90BF90B6
:10090000AF909F908F900895AF92BF92CF92DF9259
:10091000EF92FF920F931F93CF93DF93EC01690146
:10092000C801820F931F8130924050F58E81882339
:1009300079F088819981AA81BB8184179507A607E0
:10094000B70731F48F819885C816D90608F042C0E0
:10095000488359836A837B838B85833039F089E0B0
:10096000440F551F661F771F8A95D1F79A01AB0177
:1009700061E1CE010E942704882389F083E08D8302
:10098000CE010E94DE0380E0DF91CF911F910F9195
:10099000FF90EF90DF90CF90BF90AF9008950E94AE
:1009A000CC035B010E94F0038A878F3F69F40E94A9
:1009B000CC036A197B096D327140A0F38FE08D83FF
:1009C000CE010E94DE03DCCF8E3F89F418861F82A1
:1009D00081E08E838F8198858C159D0550F40E944F
:1009E000F0038F819885019698878F83F3CF8DE0F0
:1009F000E6CF6701E00EF11E0E94F003F60181933D
:100A00006F01EE15FF05C1F78F819885080F191F3B
:100A100018870F838985882319F001151240A0F0EB
:100A20008E81882389F08F8198859C012F5F3F4FAD
:100A300038872F838230924018F40E94F003F3CF5E
:100A4000CE010E94DE031E8281E09ECFCF92DF9214
:100A5000EF92FF920F93CF93DF93EC01690182E154
:100A6000411551056105710599F08B85833039F089
:100A700089E0440F551F661F771F8A95D1F79A01A9
:100A8000AB0168E1CE010E942704882319F084E0BD
:100A90008D832DC08EEF0E94E90376018EEFD81A68
:100AA000F70181917F010E94E903EC14FD04C1F775
:100AB0008FEF0E94E9038FEF0E94E9030E94F00389
:100AC0008A878F71853071F4011116C0CE010E94A2
:100AD000DE0381E0DF91CF910F91FF90EF90DF90E7
:100AE000CF90089581E18D83CE010E94DE03CE0177
:100AF0000E94DE0380E0EECF88E592E00E94F303DF
:100B0000811102C085E1C4CF20E030E0A9016DE091
:100B1000CE010E942704882311F084E1B9CF0E94FE
:100B2000F0038111FACFD2CF0F934091D0035091AF
:100B3000D1036091D2037091D30341155105610532
:100B4000710599F0082F26E33AE08091330A9091DD
:100B5000340A0E942605882349F01092D00310928F
:100B6000D1031092D2031092D30381E00F91089524
:100B70000F93CF93C82F8091350A811105C0C1E032
:100B80008C2FCF910F910895409100025091010256
:100B900060910202709103020C2F26E33AE08091EB
:100BA000330A9091340A0E942605811102C0C0E0E8
:100BB000E7CFCC2321F381E00E9494058823B9F389
:100BC0001092350ADDCF8F929F92AF92BF92EF9233
:100BD000FF920F931F93CF934B015C01C42F809121
:100BE000000290910102A0910202B09103028815C7
:100BF0009905AA05BB0551F181E00E94B805811154
:100C00000BC080E0CF911F910F91FF90EF90BF90AC
:100C1000AF909F908F90089586E3E82E8AE0F82E9B
:100C200000E012E030E020E0B501A4018091330A39
:100C30009091340A0E948404882319F38092000260
:100C400090920102A0920202B09203024091350AF2
:100C50004C2B4093350A81E0D5CF8F929F92AF9273
:100C6000BF92CF92DF92EF92FF92CF9325ED3CE0BF
:100C70003093340A2093330A882309F46DC040E08E
:100C800060E070E0CB010E94E30581110BC080E0C1
:100C9000CF91FF90EF90DF90CF90BF90AF909F905B
:100CA0008F9008958091F40B8F7789F78091000CD5
:100CB0009091010CA091020CB091030C8436910527
:100CC000A105B10520F3C090FC0BD090FD0BE09086
:100CD000FE0BF090FF0BC114D104E104F104B9F252
:100CE00040E0C701B6010E94E305882381F28091AC
:100CF000410A9091420A8115924049F6A091460A14
:100D0000AA2329F26091440A7091450A6115710580
:100D100009F4BDCF2091430A222309F4B8CFA09350
:100D2000F30C2093E50C90E080E030E0E1E0F0E0AF
:100D3000C82FAF01082E02C0440F551F0A94E2F7D6
:100D40002417350769F041E0480F01968930910575
:100D500079F74093EE0C9BCFC12CD12C7601C0CFFC
:100D60008093EE0C20914C0A30914D0A50E040E007
:100D70002115310541F420915A0A30915B0A4091C6
:100D80005C0A50915D0A2093E60C3093E70C409387
:100D9000E80C5093E90C46015701860E971EA11CE2
:100DA000B11C8092F40C9092F50CA092F60CB092CB
:100DB000F70CE091470AF091480AF093FA0CE0939F
:100DC000F90CB0E00E940421DC01CB01880D991DD3
:100DD000AA1DBB1D8093FB0C9093FC0CA093FD0CF3
:100DE000B093FE0C25E0EE0FFF1F2A95E1F7E150CE
:100DF000FE4FEF2FFF27E6958E0F9F1FA11DB11D00
:100E00008093EF0C9093F00CA093F10CB093F20C44
:100E10008090490A90904A0AB12CA12C8114910427
:100E200041F48090560A9090570AA090580AB090CA
:100E3000590AC81AD90AEA0AFB0AC80CD91CEA1CC2
:100E4000FB1C04C0F694E794D794C794CA95D2F7D4
:100E5000C092EA0CD092EB0CE092EC0CF092ED0C0C
:100E600085EFC8168FE0D806E104F10428F48CE081
:100E70008093F80C81E00CCF80E125EFC2162FEFB4
:100E8000D206E104F104A0F38091620A9091630A12
:100E9000A091640AB091650A8093FB0C9093FC0CBE
:100EA000A093FD0CB093FE0C80E2E2CF4F925F92D4
:100EB0006F927F928F929F92AF92BF92CF92DF926A
:100EC000EF92FF920F931F93CF93DF93EC01423089
:100ED00051056105710590F480E0DF91CF911F917C
:100EE0000F91FF90EF90DF90CF90BF90AF909F90C9
:100EF0008F907F906F905F904F90089589859A852D
:100F0000AB85BC850196A11DB11D84179507A60769
:100F1000B70710F3CB88DC88ED88FE888F89803195
:100F200009F042C0BB27A72F962F852F48015901F2
:100F30002A013B01C80ED91EEA1EFB1E8091000249
:100F400090910102A0910202B0910302C816D90645
:100F5000EA06FB0699F58F898031C1F5B301A2013C
:100F6000552766277727440F551F4A5C554FFA01CE
:100F7000918280828091350A81608093350A8A89C6
:100F8000823080F08D819E81AF81B8858C0D9D1D52
:100F9000AE1DBF1D8093D0039093D103A093D203C5
:100FA000B093D30381E099CFDB01CA01E7E0B695A6
:100FB000A79597958795EA95D1F7B8CF40E0C701F7
:100FC000B6010E94E3058111C6CF86CFB301A2010D
:100FD0004F77552766277727440F551F440F551F16
:100FE0004A5C554FFA0180829182A282B382C2CFBD
:100FF0008F929F92AF92BF92CF92DF92EF92FF9229
:101000000F931F93CF93DF93FC0181859285A38576
:10101000B4850196A11DB11D84179507A607B707D2
:1010200070F480E0DF91CF911F910F91FF90EF90CE
:10103000DF90CF90BF90AF909F908F90089583885E
:101040009488A588B6888789803189F5BB27A72F22
:10105000962F852FE9016A017B018F01BC01CD012B
:10106000680D791D8A1D9B1D8090000290900102E1
:10107000A0900202B090030286169706A806B90651
:1010800001F5F8018789803111F5DD24EE24FF2474
:10109000F601EE0FFF1FEA5CF54F80819181B0E011
:1010A000A0E088839983AA83BB8381E0BBCFDB0167
:1010B000CA01C7E0B695A79597958795CA95D1F7C8
:1010C000C9CF40E00E94E3058111DBCFAACFE894AD
:1010D000C7F8DD24EE24FF24F601EE0FFF1FEE0F0C
:1010E000FF1FEA5CF54F80819181A281B381BF70BF
:1010F000D8CF4F925F926F927F92AF92BF92CF9272
:10110000DF92EF92FF920F931F93CF93DF9300D064
:101110001F92CDB7DEB78C0149835A836B837C83E2
:101120005901C12CD12C7601412C82E0582E612C22
:10113000712C49815A816B817C819E012F5F3F4FC9
:10114000C8010E94F807882339F1F8018585A301B9
:10115000920104C0220F331F441F551F8A95D2F7F6
:10116000DA01C901C80ED91EEA1EFB1E49815A8147
:101170006B817C818789803111F188EF9FEFAFEF20
:10118000BFE0481759076A077B0798F2F501C0824C
:10119000D182E282F38281E00F900F900F900F9046
:1011A000DF91CF911F910F91FF90EF90DF90CF9043
:1011B000BF90AF907F906F905F904F90089588EFB1
:1011C0009FEFA0E0B0E0DDCFCF93DF93FC0125815E
:1011D000222321F080E0DF91CF910895EC018091EE
:1011E000F80C803159F582E08583178A108E118EB4
:1011F000128E8091F90C9091FA0CB0E0A0E025E0FD
:10120000880F991FAA1FBB1F2A95D1F7838B948B38
:10121000A58BB68B81EE9CE09C8F8B8F81E08C83BD
:101220001E821F82188619861A861B861C861D86BA
:101230001E861F86188A198A1A8ACDCF803251F6E7
:1012400083E085834091FB0C5091FC0C6091FD0C78
:101250007091FE0C478B508F618F728F9F012D5EB6
:101260003F4F81EE9CE00E9479088111D3CFB2CF2D
:101270008F929F92AF92BF92CF92DF92EF92FF92A6
:101280000F931F93CF93DF93EC018D8181110EC0DB
:1012900080E0DF91CF911F910F91FF90EF90DF9051
:1012A000CF90BF90AF909F908F9008950B891C892D
:1012B0002D893E89041715072607370748F34A0189
:1012C0005B01823031F48A869B86AC86BD8681E0E4
:1012D000E0CF81149104A104B10449F41E821F825D
:1012E000188619861A861B861C861D86F0CF0A85ED
:1012F0001B852C853D85EB8DFC8D858590E00996C1
:10130000B901A8014150510961097109082E04C0B1
:1013100076956795579547950A94D2F775016401BC
:10132000E1E0CE1AD108E108F10804C0F694E79490
:10133000D794C7948A95D2F7C416D506E606F70661
:1013400020F0012B022B032B11F58F89988DA98D8D
:10135000BA8D8E839F83A887B9878E010A5F1F4F3E
:10136000C114D104E104F10409F4ADCF4E815F81D1
:101370006885798598018B8D9C8D0E94F80791E096
:10138000C91AD108E108F1088111EACF81CFC41A46
:10139000D50AE60AF70AE1CF3F924F925F926F9229
:1013A0007F928F929F92AF92BF92CF92DF92EF92F5
:1013B000FF920F931F93CF93DF93CDB7DEB72C9798
:1013C0000FB6F894DEBF0FBECDBF5C01DC015B96AB
:1013D0008D909C905C9716964D905D906D907C9052
:1013E0001997411451046104710409F468C0BFEFF6
:1013F0004B1A5B0A6B0A7B0A312CF40181859285BA
:10140000A385B4859C01AD012F5F3F4F4F4F5F4FC8
:1014100029873A874B875C87730162011D821E8290
:101420001F821886F40181859285A385B4852D815C
:101430003E814F815885281739074A075B0708F016
:1014400056C089859A85AB85BC858C159D05AE05F2
:10145000BF0550F482E0C82ED12CE12CF12C92E093
:10146000492E512C612C712C9E012F5F3F4FB701EB
:10147000A601C4010E94F8078823C9F189819A81D5
:10148000AB81BC81892B8A2B8B2B09F1260137017B
:101490009FEF491A590A690A790A2D813E814F81C5
:1014A00058852F5F3F4F4F4F5F4F2D833E834F83B4
:1014B00058873FEFC31AD30AE30AF30AB3CFF40104
:1014C00040805180628073803324339496CFC4145B
:1014D000D504E604F70409F70FEF1FEF2FEF3FE005
:1014E000B701A601C4010E945607811119C080E00E
:1014F0002C960FB6F894DEBF0FBECDBFDF91CF9113
:101500001F910F91FF90EF90DF90CF90BF90AF9021
:101510009F908F907F906F905F904F903F90089535
:10152000D50116964D915D916D917C91199741155C
:1015300051056105710539F097018601C4010E94CA
:1015400056078823A1F2D5011696CD92DD92ED9231
:10155000FC921997332051F0D701C6010196A11DC5
:10156000B11DF40180839183A283B383F501878940
:10157000908DA18DB28D892B8A2B8B2B39F4848190
:10158000C78AD08EE18EF28E80688483F5018481D3
:101590008062848381E0ACCF2F923F924F925F9222
:1015A0006F927F928F929F92AF92BF92CF92DF9273
:1015B000EF92FF920F931F93CF93DF93EC015B01A8
:1015C0002A018D81811115C08FEF9FEFDF91CF919F
:1015D0001F910F91FF90EF90DF90CF90BF90AF9051
:1015E0009F908F907F906F905F904F903F902F9043
:1015F00008958C8180FFE8CF0B891C892D893E8955
:101600004A855B856C857D85C201B0E0A0E06801FC
:101610007901C41AD50AE60AF70AC816D906EA06F5
:10162000FB0618F42801441A550A42011E0126E05F
:10163000220E311C8114910409F4B3C04A855B85E4
:101640006C857D856A0181E0D8228B8D9C8D8A0115
:101650009B01E9E03695279517950795EA95D1F70F
:10166000ED81E230E1F5FC01628D738D848D958D05
:10167000600F711F821F931F612C22E0722E6C1865
:101680007D088614970408F434012C8126FD04C0DB
:101690006114F2E07F0671F40091000210910102E2
:1016A0002091020230910302061717072807390715
:1016B00009F053C040E00E94E305882309F484CF79
:1016C000C6018A5C954FD5019C01260D371DFC0192
:1016D0002E173F0709F460C041914D93F9CFFC01EB
:1016E00074807A947022C114D10471F471100CC00A
:1016F000452B462B472B39F58F89988DA98DBA8DAF
:101700008E839F83A887B987EB8DFC8D6E817F8147
:10171000888599856250710981099109258504C0E0
:10172000660F771F881F991F2A95D2F706851785A0
:1017300020893189600F711F821F931F670D711DF2
:10174000811D911D99CF4E815F81688579859101B9
:101750000E94F8078111D8CF37CF75018301960118
:10176000AB01BC018091330A9091340A0E94840439
:10177000882309F429CFA60CB71C8A859B85AC85E4
:10178000BD85860D971DA11DB11D8A879B87AC87DE
:10179000BD87861897084ECF281B390BA20EB31EA3
:1017A000ECCFC20113CF1F93CF93DF93FC012581B0
:1017B0002223D1F1162FEC01848187FF2AC0668590
:1017C00077858089918941E00E94E305882361F152
:1017D000EA8980E2E89FF0011124EA5CF54F309736
:1017E00019F18D81823040F48B899C89AD89BE8945
:1017F000848F958FA68FB78F8F89988D938F828FC7
:101800008F89988DA98DBA8DB58BA48B8C818F779C
:101810008C83111103C08C818F7E8C83812FDF918B
:10182000CF911F910C94B80580E0DF91CF911F916B
:101830000895FF920F931F93CF93DF93EC018D8157
:10184000813041F090E080E0DF91CF911F910F91C6
:10185000FF9008958C8181FFF5CF82FD1BC0009120
:10186000330A1091340AC8010E9411040E94F00347
:10187000F82EC8010E94DE038FEFF812E3CF8C81AF
:1018800085FF1BC060E0CE010E94D30B8C818F7D51
:101890008C83D8CF4B895C896D897E898A859B85AD
:1018A000AC85BD8584179507A607B707C1F2CE01A1
:1018B0000E9438098111D3CFC5CF4091D0035091F8
:1018C000D1036091D2037091D303452B462B472B54
:1018D00021F080E00E949405B5CF80618C832A8539
:1018E0003B85317080E092E0821B930BADCFCF93AC
:1018F000DF93EC0161E00E94D30B882311F01D827D
:1019000081E0DF91CF9108952F923F924F925F92A5
:101910006F927F928F929F92AF92BF92CF92DF92FF
:10192000EF92FF920F931F93CF93DF9300D01F92FC
:101930001F92CDB7DEB77C015B01342E5D83DC01E5
:1019400015968C911597813009F0CEC014962C9085
:1019500021FECAC022FCB4C0C32CDD8022947FE0EB
:1019600027222094B22DB1702B2ED7011A964D91BB
:101970005D916D917C911D97C114D10409F428C12A
:101980005B968D919C915C97FC0174807A948A019E
:101990009B0169E036952795179507956A95D1F7CC
:1019A00070228A011170711020C001151105E9F42F
:1019B00016964D915D916D917C9119974115510548
:1019C0006105710509F099C057968D919D910D9013
:1019D000BC91A02D0097A105B10509F0B0C0C701C9
:1019E0000E94CC09882309F47FC080E092E0801B2C
:1019F000910B46018C159D0508F44C01D7015B96AF
:101A00004D915C915C9716968D919D910D90BC9136
:101A1000A02D0297A109B109FA01258504C0880FFC
:101A2000991FAA1FBB1F2A95D2F746855785608943
:101A30007189840F951FA61FB71F9C01AD01270D4B
:101A4000311D411D511D29013A01811432E09306D7
:101A500009F07BC08091000290910102A0910202E6
:101A6000B091030284159505A605B70559F48FEFCB
:101A70009FEFDC018093000290930102A093020289
:101A8000B0930302022D9501B301A2018091330AA4
:101A90009091340A0E942605882331F19EEFB91AED
:101AA000C818D908F70182859385A485B585880D66
:101AB000991DA11DB11D82879387A487B58755CF36
:101AC000F701438954896589768982859385A48540
:101AD000B585481759076A077B0709F43DCFC70149
:101AE0000E943809811138CF81E090E0D701139628
:101AF0009C938E93129780E007C09E012F5F3F4F0B
:101B00000E94F807811102C090E079C089819A8112
:101B1000AB81BC81F701238D348DF901278948EF12
:101B20005FEF60E070E0203121F048EF5FEF6FEF92
:101B30007FE084179507A607B70708F050CFF70195
:101B400086839783A087B18750CF0115110599F53A
:101B5000D7011A964D915D916D917C911D97539689
:101B60008D919D910D90BC91A02D481759076A0742
:101B70007B0708F181E00E94B805882309F4B4CFFF
:101B8000409200025092010260920202709203029F
:101B90008091350A81608093350AC8018A5C954F2F
:101BA000D5019C01280D391DFC012E173F0759F066
:101BB0004D914193FACF41E0C301B2010E94E30588
:101BC0008111EBCF91CF281B390BA20EB31E68CF2A
:101BD000F70183899489A589B68984179507A60793
:101BE000B70738F48481438B548B658B768B806880
:101BF0008483F701848183FD1AC0832D9D810F901A
:101C00000F900F900F900F90DF91CF911F910F9138
:101C1000FF90EF90DF90CF90BF90AF909F908F900C
:101C20007F906F905F904F903F902F90089561E06C
:101C3000C7010E94D30B882309F456CFDECFCF9380
:101C4000DF931F92CDB7DEB7698341E050E0BE015C
:101C50006F5F7F4F0E94840C0F90DF91CF910895AA
:101C6000FC01DB0112968D919C91139793838283E3
:101C70008EE592E09183808314968C9114978483EF
:101C800015968C911597858316964D915D916D9162
:101C90007C91199746835783608771871A964D9177
:101CA0005D916D917C911D974287538764877587FD
:101CB0001E964D915D916D917C9151974687578706
:101CC000608B718B52968C915297828B53964D916B
:101CD0005D916D917C915697438B548B658B768B80
:101CE00057964D915D916D917C915A97478B508F8E
:101CF000618F728F5B968D919C91948F838F0895E5
:101D0000FC01818D928D009719F061E00C94D30B4A
:101D10000895DC015996ED91FC913097B9F08389D3
:101D20009489A589B6894285538564857585841B08
:101D3000950BA60BB70B811520E89207A105B105FD
:101D400038F08FEF9FE7A0E0B0E0089590E080E0EA
:101D50000895DC0159968D919C91009739F0DC0132
:101D6000ED91FC910480F581E02D199490E080E0E4
:101D70000895CF93DF93EC01E98DFA8D309749F404
:101D800081E090E09B838A8390E080E0DF91CF91B7
:101D9000089513821282898D9A8D0E94840CE98D98
:101DA000FA8D22813381232B59F7F0CFCF93DF9324
:101DB0001F92CDB7DEB76983DC01ED91FC91028003
:101DC000F381E02D41E050E0BE016F5F7F4F199538
:101DD0000F90DF91CF910895CF93DF931F92CDB7EE
:101DE000DEB741E050E0BE016F5F7F4F0E94CC0A3A
:101DF000019731F4898190E00F90DF91CF910895A0
:101E00008FEF9FEFF9CFFC01818D928D009711F03C
:101E10000C94EC0E8FEF9FEF08950F931F93CF93C9
:101E2000DF93EC01898D9A8D10E000E0009799F026
:101E30000E94EC0E8C010F3F100769F0898D9A8D7E
:101E4000FC014285538564857585415051096109BE
:101E500071090E943809C801DF91CF911F910F913C
:101E60000895089590E080E008950F931F93CF9315
:101E7000DF932091CD032F5F322F37703093CD0346
:101E800020FF2BC020E831FD2064347009F020626F
:101E9000205FFC01EC01239600E011E064856623DD
:101EA00029F070E0C8010E942E216F5F6187322FF8
:101EB000369F030E30E0311D1124311110C01682FF
:101EC000662311F0615061873196EC17FD0731F7F9
:101ED000DF91CF911F910F91089520E0D4CF315021
:101EE0003683EECF4F925F927F928F929F92AF9206
:101EF000BF92CF92DF92EF92FF920F931F93CF93F7
:101F0000DF932C01EB010E94A703F20127853089A2
:101F1000621B730B6A307105B0F3F8948A819B8160
:101F2000181619060CF0CDC1E881F98165B1862E2D
:101F3000689486F835B13F7B35B9DA848F812D2DD1
:101F4000281B822F2F834F85042E000C550BAA814E
:101F5000BB817D85FC84EE847F5FF394E3949E8156
:101F60009884B984AB841181C12C6C2D0C2D2C2D3F
:101F70002181112788942111280F08F42FEF8195D2
:101F8000889470FD120F1795889471FD120F1795A4
:101F9000889472FD120F1795889473FD120F179590
:101FA000889474FD120F1795889475FD120F17957C
:101FB000889476FD120F1795889477FD120F179568
:101FC0008894622F7111612F8D0D162F002C85B80A
:101FD00000C017FF35B920816627889400C000C073
:101FE000002C35B92111290F00C0002C85B800C084
:101FF00016FF35B908F42FEF9195889400C000C002
:10200000002C35B9F0FC620F00C0002C85B800C070
:1020100015FF35B967958894F1FC620F00C000C0C8
:10202000002C35B96795889400C0002C85B800C095
:1020300014FF35B9F2FC620F6795889400C000C0A8
:10204000002C35B9F3FC620F00C0002C85B800C02D
:1020500013FF35B967958894F4FC620F00C000C087
:10206000002C35B96795889400C0002C85B800C055
:1020700012FF35B9F5FC620F6795889400C000C067
:10208000002C35B9F6FC620F00C0002C85B800C0EA
:1020900011FF35B967958894F7FC620F00C000C046
:1020A000002C35B96795889400C0002C85B800C015
:1020B00010FF35B9122FF110162F9B0D00C000C074
:1020C000002C35B900C000C0002C85B800C017FF37
:1020D00035B922816627889400C000C0002C35B92C
:1020E0002111290D00C0002C85B800C016FF35B99C
:1020F00008F42FEFE40FF51F00C000C0002C35B925
:10210000E0FC620F00C0002C85B800C015FF35B997
:1021100067958894E1FC620F00C000C0002C35B9BF
:102120006795889400C0002C85B800C014FF35B9AD
:10213000E2FC620F6795889400C000C0002C35B99E
:10214000E3FC620F00C0002C85B800C013FF35B956
:1021500067958894E4FC620F00C000C0002C35B97C
:102160006795889400C0002C85B800C012FF35B96F
:10217000E5FC620F6795889400C000C0002C35B95B
:10218000E6FC620F00C0002C85B800C011FF35B915
:1021900067958894E7FC620F00C000C0002C35B939
:1021A0006795889400C0002C85B800C010FF35B931
:1021B000122FE110162F919400C000C0002C35B9E9
:1021C0009A0C00C000C085B800C017FF35B9218146
:1021D0006627889400C000C0002C35B92111280F53
:1021E00000C0002C85B800C016FF35B908F42FEFE9
:1021F0008195889400C000C0002C35B970FD620F35
:1022000000C0002C85B800C015FF35B967958894CB
:1022100071FD620F00C000C0002C35B9679588942D
:1022200000C0002C85B800C014FF35B972FD620FE4
:102230006795889400C000C0002C35B973FD620F0B
:1022400000C0002C85B800C013FF35B9679588948D
:1022500074FD620F00C000C0002C35B967958894EA
:1022600000C0002C85B800C012FF35B975FD620FA3
:102270006795889400C000C0002C35B976FD620FC8
:1022800000C0002C85B800C011FF35B9679588944F
:1022900077FD620F00C000C0002C35B967958894A7
:1022A00000C0002C85B800C010FF35B9122F711185
:1022B000162F8D0D00C000C0002C35B9119709F004
:1022C00086CE4A815B8120EE31E0DA010E946C21EA
:1022D000DC01CB01F4E0B695A79597958795FA9523
:1022E000D1F730E020E0B901EAE94E9F040E611D0C
:1022F0005E9F600D711D1124650F711D860F971F64
:10230000A11DB11D893E43E09407A105B10508F464
:1023100034C0885E9340A109B10942E0B695A79503
:10232000979587954A95D1F747E0849F080E211D20
:10233000949F200D311D1124290F311D6091CC0374
:1023400070E0860F971F820F931F4091D503509125
:10235000D6036091D7037091D803292F3327420FFA
:10236000531F611D711D4093D5035093D603609395
:10237000D7037093D8038093CC0378940E94A7036B
:10238000F201708B6787DF91CF911F910F91FF90C2
:10239000EF90DF90CF90BF90AF909F908F907F9005
:1023A0005F904F900895269A08956F927F928F9232
:1023B000CF92DF92EF92FF920F931F93CF93DF9311
:1023C000CDB7DEB762970FB6F894DEBF0FBECDBFB4
:1023D0006C017A013801822EDC011C962C91CA0115
:1023E00057FF04C088279927841B950B7A8369833C
:1023F0009C838B839E838D836D867E868F86213022
:1024000049F5CE0101960E94350F83E0888B1A8A28
:10241000198AF7FE02C08DEF888BD601ED91FC91F1
:102420000484F585E02DBE016F5F7F4FC6011995CD
:1024300062960FB6F894DEBF0FBECDBFDF91CF918D
:102440001F910F91FF90EF90DF90CF908F907F9032
:102450006F9008951C861B861A86198618861F821F
:10246000D4CFEF92FF920F931F93CF93DF93CDB70B
:10247000DEB762970FB6F894DEBF0FBECDBF7C010A
:10248000DC011C968C917A8369835C834B835E8329
:102490004D830D871E872F878130F9F4CE01019679
:1024A0000E94350F188A1A8A198AD701ED91FC917A
:1024B0000484F585E02DBE016F5F7F4FC70119953C
:1024C00062960FB6F894DEBF0FBECDBFDF91CF91FD
:1024D0001F910F91FF90EF9008951C861B861A861E
:1024E000198618861F82DECF90E080E00895FC01F7
:1024F0008585968508950F931F93CF93DF9300D022
:10250000CDB7DEB7AB0119821A821B82DC01ED91D7
:10251000FC910190F081E02D00E010E020E0BE0190
:102520006F5F7F4F19950F900F900F90DF91CF91B4
:102530001F910F9108950F931F93CF93DF93EC0199
:1025400080E2689FF0011124EA5CF54F6A8B80916C
:10255000000290910102A0910202B09103028E87C5
:102560009F87A88BB98B0489158930E020E09801FA
:10257000112700270F8B188F298F3A8F828D938D0B
:10258000B0E0A0E0AC01BD01402B512B622B732BBE
:102590004F8B588F698F7A8F83858871A9F4848DCA
:1025A000958DA68DB78D8B8B9C8BAD8BBE8B81E073
:1025B0008D8381E08C831E821F82188619861A867D
:1025C0001B861C861D8603C0803131F080E0DF91C0
:1025D000CF911F910F9108959E012D5E3F4F8B8DDE
:1025E0009C8D0E947908882389F384E0E1CFCF9302
:1025F000DF93EC0160E08E810E941B0361E08E811D
:102600000E941B0360E08E810E941B038BE891E017
:102610000197F1F7DF91CF910895CF92DF92EF927A
:10262000FF920F931F93CF93DF936C017C0187E0A0
:10263000E80EF11CD0E0C0E0062F10E0B8010C2E2F
:1026400002C0759567950A94E2F76170F701819170
:102650007F010E941B032196C430D10579F7C60182
:10266000DF91CF911F910F91FF90EF90DF90CF906E
:102670000C94F712CF92DF92EF92FF920F931F9379
:10268000CF93DF93EC01F62E642F8C810E941B0305
:102690008D818F3F19F060E00E941B030F2D10E029
:1026A0008F8584FF25C06E0187E0C80ED11CF12CF8
:1026B000E12CB8010E2C02C0759567950A94E2F7DB
:1026C0006170F60181916F010E941B03FFEFEF1A09
:1026D000FF0A88E0E816F10461F7CE01DF91CF919F
:1026E0001F910F91FF90EF90DF90CF900C94F71215
:1026F000B80184E0759567958A95E1F7CE010E944F
:102700000D136F2DCE01DF91CF911F910F91FF908F
:10271000EF90DF90CF900C940D1340E0682F8BE288
:102720009DE00C943A1381E00E948D138BE39FE1AE
:102730000197F1F70895CF93DF93823029F49091B8
:102740003A0D986090933A0D80933E0D10923F0D94
:1027500080E48093400D80E18093410D80E580937B
:10276000420D80912F0D0E94AF018091300D8F3F5F
:1027700011F00E94AF018091310D0E94AF01CBE2B8
:10278000DDE09E012B523D4080913A0D84FD0AC050
:1027900084E090E02196281739073CF48E810E944E
:1027A000AF01EFCF88E090E0F5CF8BE39DE001979C
:1027B000F1F760E080912F0D0E941B0360E0809193
:1027C000310D0E941B038091300D8F3F19F060E0A6
:1027D0000E941B0380913A0D84FD34C063E08BE2BC
:1027E0009DE00E940D13CBE4D6E4CE010197F1F7F2
:1027F00063E08BE29DE00E940D132197F1F763E007
:102800008BE29DE00E940D1383E592E00197F1F7C2
:1028100062E08BE29DE00E940D1380913A0D806290
:102820000E948D1384E080933B0D8CE00E948D13F9
:102830000E94931382E080933C0D86E0DF91CF915C
:102840000C948D1380620E948D138BE496E40197A3
:10285000F1F780913A0D80620E948D1383E592E03A
:102860000197F1F780913A0D80620E948D13D5CFC8
:1028700041E00E943A1381E090E00895AF92BF9248
:10288000CF92DF92EF92FF920F931F93CF93DF933C
:1028900000D000D000D01F921F92CDB7DEB76C01E0
:1028A000FE013196CE010C967F0120E22193E817BC
:1028B000F907E1F7DA0120E037E09D91B92E99237D
:1028C000A9F19E32B9F43A3091F480E02B960FB61C
:1028D000F894DEBF0FBECDBFDF91CF911F910F9156
:1028E000FF90EF90DF90CF90BF90AF90089528E0D9
:1028F0003AE0E3CFE6EEF2E08491882321F03196CE
:102900009813FACFE2CF321700F38FED890F8E358F
:10291000E0F68FE9890F8A3118F440EEB42EB90E33
:10292000F701E20FF11DB0822F5FC7CF898180329E
:1029300061F28B01FB01838D948DF601948F838F5F
:10294000FB01168217821086118612861386148662
:102950001586F80182859385A485B58543895489B8
:102960006589768984179507A607B70708F0ADCF64
:1029700025E0B695A795979587952A95D1F7F82FD5
:10298000FF70AF2EF8018581823008F49ECFC80118
:102990000E94EC0E97FD99CFF80182859385A4855E
:1029A000B5854F96A11DB11D82879387A487B587F2
:1029B000F0E2AF9EB00111246A5C754F611571059C
:1029C00009F483CFFB018081882309F1853E19F446
:1029D000B11032C01EC04BE050E0C7010E949223EC
:1029E000892B09F0B6CF6A2DC6012B960FB6F89445
:1029F000DEBF0FBECDBFDF91CF911F910F91FF9032
:102A0000EF90DF90CF90BF90AF900C949B12B110DD
:102A10005CCFF601A28A8091000290910102A09100
:102A20000202B091030286879787A08BB18BFB01CE
:102A30008081882309F449CFBB24B3948ACFFC0159
:102A400080819181009711F00C94232208950E94B7
:102A50008D23FC0124813581FB014481558124179C
:102A60003507A0F0FC0180819181009779F0FB018E
:102A7000608171816115710549F0241B350B820F4E
:102A8000931F0E94B32321E0892B09F020E0822FBD
:102A900008950F931F93CF93DF93EC018881998161
:102AA000009759F02A813B812617370730F081E0E3
:102AB000DF91CF911F910F9108958B016F5F7F4F31
:102AC0000E94AC22009759F0998388831B830A8364
:102AD0002C813D81232B59F7FC011082E8CF80E047
:102AE000E7CFEF92FF920F931F93CF93DF93EC0109
:102AF0007B018A01BA010E9449152881398181111F
:102B000014C02115310519F0C9010E942322198230
:102B100018821D821C821B821A82CE01DF91CF9106
:102B20001F910F91FF90EF9008951D830C83B701C3
:102B3000C9010E94BC23F1CFCF93DF93EC01FB01CD
:102B40008617970749F0608171816115710541F021
:102B5000448155810E947115CE01DF91CF91089576
:102B600088819981009711F00E942322198218828E
:102B70001D821C821B821A82EFCFFC0111821082FF
:102B800013821282158214826115710551F0FB01C6
:102B900001900020E9F73197AF01461B570B0C94C9
:102BA00071150895FB0101900020E9F73197AF01FD
:102BB000461B570BDC01ED91FC910280F381E02D67
:102BC0001994CF93DF93BC0186E39CE00E94D21559
:102BD000EC0162E772E086E39CE00E94D2158C0F64
:102BE0009D1FDF91CF910895EF92FF920F931F9356
:102BF000CF93DF93EC017B018A011B821A8288EE5E
:102C000093E0A0E0B0E08C839D83AE83BF838AE332
:102C100092E0998388838DE190E00E9487219A8FCA
:102C2000898F009779F02DE1F701DC0101900D9279
:102C30002A95E1F74CE050E0B801CE010C960E94D5
:102C4000C323188EDF91CF911F910F91FF90EF90CA
:102C500008952F923F924F925F926F927F928F9240
:102C60009F92AF92BF92CF92DF92EF92FF920F931B
:102C70001F93CF93DF93CDB7DEB7C656D1090FB6FA
:102C8000F894DEBF0FBECDBF6C015B0119A218A284
:102C90008EE592E09F8F8E8F1BA21C821B829A83EF
:102CA00089831E824E018EE1880E911CC4010E9410
:102CB000E40875018E010F5F1F4F240118016FE2B8
:102CC00070E0C7010E94A823009709F45CC0F701D7
:102CD00020812F3271F4FFEFEF1AFF0A902F812F1E
:102CE0008201492E582E942D852D2801092F182F49
:102CF000E6CF8E198D3008F08CE0682E712CA30180
:102D0000B701CE01885A9F4F0E94C323E8E5F0E047
:102D1000EC0FFD1FE60DF71D1082C8010E94770C15
:102D2000F8018581882301F11EAE1DAE8EE592E08B
:102D30009CAF8BAF21961FAE2197A796EEADFFAD4E
:102D4000A797AE0EBF1EF5018081811129C0BE017B
:102D5000655C7F4FC1010E94300E45E752E0B10132
:102D6000C6010E94F4153AC0AE01485A5F4FB20145
:102D7000C8010E943E148823B9F2E60CF71CC20178
:102D80000E94770CB0CFC7018A199B09A7969FAF05
:102D90008EAFA797B201CE01CB960E94300ECDCF59
:102DA00019A218A28EE592E09F8F8E8F1BA221960A
:102DB0008FAD219781112DC0F6011382128288EE0A
:102DC00093E0A0E0B0E084839583A683B7838AE391
:102DD00092E091838083128E118E1486C601CA59A7
:102DE000DF4F0FB6F894DEBF0FBECDBFDF91CF919E
:102DF0001F910F91FF90EF90DF90CF90BF90AF9019
:102E00009F908F907F906F905F904F903F902F900A
:102E10000895A501BE01655C7F4FC4010E943E1468
:102E2000882351F2CE01CB960E94770CB401C101E8
:102E30000E94300EA50193CF8F929F92AF92BF92C6
:102E4000CF92DF92EF92FF920F931F93CF93DF9376
:102E5000CDB7DEB7A3970FB6F894DEBF0FBECDBFD8
:102E60008B016A01FC018081882321F167E772E010
:102E7000CE0101960E94BD15BE016F5F7F4FC80154
:102E80000E942915F82ECE0101960E941F15FF20E1
:102E9000A9F0F80160817181CE0101960E94291686
:102EA000EA8DFB8D309719F0858181111AC081EA76
:102EB00092E002C08CE792E00E94E115A3960FB663
:102EC000F894DEBF0FBECDBFDF91CF911F910F9160
:102ED000FF90EF90DF90CF90BF90AF909F908F903A
:102EE000089564E772E0CE014C960E94BD15F12C66
:102EF000E12C10E000E093E0A92EB12CCE01019668
:102F00000E94890E892B89F10115F2E01F076CF5EB
:102F1000CE0101960E94030F982E8CE2981236C0C3
:102F20008C8D9D8D60E0009711F00E94C820F80103
:102F3000EE0FFF1FE00FF11FEC0DFD1DEE0DFF1D4D
:102F40006083C7010196B5010E942E217C0150E0EB
:102F500040E064E772E0CE014C960E947115FAE001
:102F60009F12CCCF0F5F1F4FC9CF8A8D9B8D0097CB
:102F700041F00E94770C8A8D9B8D0E9423221B8E2C
:102F80001A8ECE014C960E941F1598CFEAE09E162D
:102F900039F29AA21BA288A099A08FEF881A980AEA
:102FA000B401CE014C960E944915882309F4A6CF9E
:102FB0002C8D3D8D88A199A1BE016E5D7F4F820F42
:102FC000931F0E94BC2399A288A298CF1F920F92B0
:102FD0000FB60F9211240BB60F922F933F934F937E
:102FE0005F936F937F938F939F93AF93BF93EF9371
:102FF000FF9386E39CE00E945B02FF91EF91BF91FB
:10300000AF919F918F917F916F915F914F913F9180
:103010002F910F900BBE0F900FBE0F901F90189521
:103020001F920F920FB60F9211240BB60F922F938F
:103030008F939F93EF93FF93E091460CF091470C91
:103040008081E0914C0CF0914D0C82FD1DC090816F
:1030500080914F0C8F5F8F732091500C821741F03D
:10306000E0914F0CF0E0EA5CF34F958F80934F0CAA
:10307000FF91EF919F918F912F910F900BBE0F9029
:103080000FBE0F901F9018958081F2CF1F920F9264
:103090000FB60F9211242F933F938F939F93AF936B
:1030A000BF938091D5039091D603A091D703B0919F
:1030B000D8033091D40323E0230F2D3758F5019620
:1030C000A11DB11D2093D4038093D5039093D60303
:1030D000A093D703B093D8038091D9039091DA03DA
:1030E000A091DB03B091DC030196A11DB11D80937B
:1030F000D9039093DA03A093DB03B093DC03BF9171
:10310000AF919F918F913F912F910F900FBE0F9094
:103110001F90189526E8230F0296A11DB11DD2CF4E
:10312000E6E3FCE01382128288EE93E0A0E0B0E0D8
:1031300084839583A683B7838CE492E09183808314
:1031400085EC90E09587848784EC90E0978786876C
:1031500080EC90E0918B808B81EC90E0938B828B64
:1031600082EC90E0958B848B86EC90E0978B868B3D
:10317000118E128E138E148EE3EDFCE080E58083B9
:103180001182E5EDFCE0158216821186138682E03D
:1031900090E0A0E0B0E084879587A687B78713A268
:1031A00015A614A68EE592E093A782A717A6EEE1D6
:1031B000FDE08FEF808312821182148613864FEF19
:1031C0005FEFBA014783508761877287EBE2FDE0CA
:1031D000138212822AE632E03183208394E09483C2
:1031E000858385E086838AE0878389E0808788E01D
:1031F000818787E082871386148615861686178650
:1032000081E00C949B13CF93DF93CDB7DEB7C35A05
:10321000D1090FB6F894DEBF0FBECDBF789484B548
:10322000826084BD84B5816084BD85B5826085BDC2
:1032300085B5816085BD80916E00816080936E0050
:103240001092810080918100826080938100809142
:1032500081008160809381008091800081608093F3
:1032600080008091B10084608093B1008091B000B3
:1032700081608093B0008091910082608093910082
:103280008091910081608093910080919000816095
:10329000809390008091A10082608093A100809132
:1032A000A10081608093A1008091A0008160809343
:1032B000A0008091210182608093210180912101F1
:1032C00081608093210180912001816080932001A1
:1032D00080917A00846080937A0080917A00826085
:1032E00080937A0080917A00816080937A00809147
:1032F0007A00806880937A001092C100E091460CB9
:10330000F091470C82E08083E091420CF091430CF5
:103310001082E091440CF091450C8FEC8083109268
:103320004E0CE0914A0CF0914B0C86E08083E091CA
:10333000480CF091490C808180618083E091480CB9
:10334000F091490C808188608083E091480CF09175
:10335000490C808180688083E091480CF091490C91
:1033600080818F7D808381E196E00E9487218C019E
:10337000DC0112961C92129714961C921E921397BF
:1033800083E090E016969C938E93159781E090E0F1
:1033900018969C938E9317971A969C938E931997D1
:1033A0005801BDE0AB0EB11C1801E3EF2E1AE9EF96
:1033B0003E0AD1011C92F801E25FF94F108286E0CB
:1033C0000E94AF0183E00E94AF018091F003811160
:1033D00045C01092E2031092E1038FEF8093E50362
:1033E0008093E6038093E7038093E8038093E903E7
:1033F0008093EA0381E08093EB031092ED03109237
:10340000EC031092E4031092E30380912B0490915B
:103410002C04892B31F48FED93E090932C0480934E
:103420002B04E091DD03F091DE03309721F08FED66
:1034300093E0958384838FED93E09093DE038093F4
:10344000DD031092EF031092EE038EE192E0909371
:10345000E0038093DF0381E08093F003269A81E309
:1034600094E09093E2038093E10380E092E09093F4
:10347000ED038093EC038091210D9091220DA0919A
:10348000230DB091240D843CE9E09E07A105B10510
:1034900020F484EC99E0A0E0B0E08093210D9093BB
:1034A000220DA093230DB093240D81E080931E0D77
:1034B00082E00E949B130E94931386E00E94AF015A
:1034C00061E086E00E941B0383E00E94AF01E3EE0F
:1034D000F1E0E491E150E23108F065C1F0E08827C5
:1034E000EB58F54E8F4F0C946421871A261B2C1B2A
:1034F000381B441BD31B501B591B621B6E1B7A1BB2
:10350000861B971BA31BD31BAF1BBB1BC71B84B501
:10351000806884BD8CE687BD81E090E00E948721B1
:103520006C0185EB92E00E94E1158091040D8823E7
:1035300021F08FEF9CE00E94770C1092E00C10922B
:10354000DE0C1092DB0C1092DA0C85E38093D90C20
:103550000E94CC037B018091D90C0E94AF0161E0F5
:103560008091D90C0E941B039FB6F8948091F803B8
:10357000811124C0EFE8F2E08491E5EDF2E094914E
:10358000E82FF0E0EE0FFF1FE05CFD4FA591B49136
:10359000EC91E92321F461E085E30E941B0385E3BC
:1035A0000E94AF018CB580618CBD8CB580648CBDF0
:1035B00084E30E94AF0183E30E94AF018091F8038E
:1035C0008F5F8093F8039FBE82E58093D30C1092A7
:1035D000D40C8091D30C9091D40C0E940E042AE05C
:1035E000922E8FEF0E94E9039A949110FACF85ED05
:1035F0009CE00E94110420E030E0A90160E085ED2C
:103600009CE00E942704982E8093DF0CF1E08F1736
:1036100009F4CEC00E94CC036E197F09613D77404A
:1036200050F381E08093DA0C85ED9CE00E94DE038C
:1036300082EE92E00E94E11581E193E00E94E115A3
:1036400083E593E00E94E11580E031C184B580629A
:1036500084BD8CE688BD60CF8091800080688093B7
:1036600080008CE690E0909389008093880054CF8E
:10367000809180008062809380008CE690E090933F
:103680008B0080938A0048CF80918000886080936F
:1036900080008CE690E090938D0080938C003CCF6E
:1036A0008091B00080688093B0008CE68093B30076
:1036B00033CF8091B00080628093B0008CE680931D
:1036C000B4002ACF809190008068809390008CE6AF
:1036D00090E090939900809398001ECF8091900085
:1036E0008062809390008CE690E090939B008093A2
:1036F0009A0012CF809190008860809390008CE6B1
:1037000090E090939D0080939C0006CF8091A00054
:1037100080688093A0008091A0008F7B8093A000A0
:103720008CE690E09093A9008093A800F5CE80915C
:10373000A00080628093A0008CE690E09093AB00A4
:103740008093AA00E9CE8091A00088608093A000B9
:103750008CE690E09093AD008093AC00DDCE80913C
:1037600020018068809320018CE690E090932901ED
:1037700080932801D1CE8091200180628093200126
:103780008CE690E090932B0180932A01C5CE809126
:1037900020018860809320018CE690E090932D01B9
:1037A00080932C01B9CE60E083E00E941B03B4CE6D
:1037B0002AEA31E040E050E068E085ED9CE00E94BC
:1037C000270482FF2AC09092E00C8091E00C412CEB
:1037D000512C3201823029F4412C512C612C80E48F
:1037E000782E20E030E0A90167E385ED9CE00E949F
:1037F0002704A301920169E285ED9CE00E94270461
:103800008093DF0C8823D1F00E94CC036E197F09CE
:10381000613D774030F388E005CF94E0992E0E9417
:10382000F0038093DF0C9A949110F9CF8A3A11F04B
:1038300082E0F8CE82E08093E00CC7CF8091E00C6C
:103840008230D1F420E030E0A9016AE385ED9CE00C
:103850000E942704882311F086E0E4CE0E94F00342
:10386000807C803C19F483E08093E00C0E94F0039C
:103870000E94F0030E94F00385ED9CE00E94DE03AD
:1038800080E58093D30C1092D40C81E00E942D0629
:10389000882309F4C9C08FEF9CE00E94E4088823C4
:1038A00009F4C6CE8DEC92E00E94E11581E0D601CC
:1038B0008C93F801E15FF94FC056DF4FF983E8833D
:1038C000C05AD040D182C08280911D04811116C09F
:1038D000A9EFEA2EA3E0FA2EBDE18B2EB4E09B2ED9
:1038E00064E772E0C7010E94BD15F6E0EF0EF11C1F
:1038F0008E149F04A9F781E080931D04D6018C915A
:10390000811199C08CE792E00E94E11589EF93E064
:10391000D8011C969C938E931B97F12CE12CD80117
:103920001B96ED91FC91EE0DFF1D84819581892BF5
:10393000C9F0D1018C918F5F8C9344815581608156
:10394000718186E39CE00E94E70162E772E086E312
:103950009CE00E94D215B6E0EB0EF11CE4E2EE16FC
:10396000F104E9F6C056DF4FA881B981C05AD040B2
:10397000ED90FC90F801638574851A8219821C828F
:103980001B821E821D82CE0101960E949C15A501FC
:10399000BE016F5F7F4FC7010E941C17CE010196C9
:1039A0000E941F15D801AD92BC921093320A009369
:1039B000310ACC24C3947CE8272E312C0E94A70323
:1039C0002B013C0164E6862E912CA12CB12C0E9487
:1039D000A7036419750986099709683E7340810534
:1039E0009105A8F3B1E08B1A9108A108B108E8EE9F
:1039F0004E0EE3E05E1E611C711C81149104A10453
:103A0000B10429F7E091310AF091320A818592855B
:103A10008230910509F48BC108F01FC1019709F4A8
:103A20002EC190E080E031C180E00E942D06882305
:103A300009F4FECD30CF65E772E0CE018A589F4F82
:103A40000E942916F12CE12CE8EE4E2EE3E05E2ECA
:103A5000612C712CFAE38F2EF2E09F2EEBE5F0E063
:103A6000EC0FFD1F3C96CE55DF4FF983E883C25A19
:103A7000D040C157DF4FC880D980CF58D040D60141
:103A800015968C911597823008F4D1C01A968D91B5
:103A90009D910D90BC91A02D8F719927AA27BB27CE
:103AA000892B8A2B8B2B09F0C2C040E250E0BE016B
:103AB0006F5F7F4FC6010E94CC0A803209F0B7C009
:103AC0008981882309F4B3C0853E79F38E3269F386
:103AD0008C8583FDEACF22961FAE1EAE2297EEE5BF
:103AE000F2E0FFAFEEAF24961FAE2497BE016F5FEA
:103AF0007F4FE0E080E04EE2DB019D91BD0121E9D6
:103B000030E02C0F3D1F2E0F311D903281F051E01F
:103B10005E0F883019F4F9014083E52F21E930E088
:103B20002C0F3D1F2E0F311DD9019C93EF5F8F5F2E
:103B30008B3011F721E930E02C0F3D1F2E0F311D86
:103B4000F9011082C157DF4F68817981CF58D04089
:103B5000AE014F565F4FCE01CE960E943E14882391
:103B600009F465C0BE01625C7F4FCE0181960E9460
:103B7000300EAE014F565F4FBE016F5D7F4FCE01DD
:103B8000855A9F4F0E94F415E696EEADFFADE6977D
:103B9000309709F4BBCE8581882309F4B7CE8230F3
:103BA00090F5CE55DF4F68817981C25AD040CE0161
:103BB00081960E94BD1567E772E0CE0101960E94D2
:103BC000BD15BE016F5F7F4FCE0181960E94291502
:103BD000D82ECE0101960E941F15DD2081F026E02F
:103BE0002E9DC0012F9D900D1124BE016F5D7F4F52
:103BF00087509C4F0E949C153FEFE31AF30ACE01B9
:103C000081960E941F15E6968EAD9FADE6970097B0
:103C100041F00E94770CE6968EAD9FADE6970E942C
:103C2000232246E0E416F10409F023CF6FCE6F960D
:103C30001FAE1EAE6F97A3964CAE5DAE6EAE7FAE5E
:103C4000A3976D969FAE8EAE6D97E6961FAE1EAE95
:103C5000E697A8961FAEA89797CF8330910509F4F1
:103C60006AC0049709F0DDCE838194814FEF5FEF46
:103C7000C256DF4F59834883CE59D04006C0828157
:103C80008150990B8F739927828320ECC256DF4FA6
:103C900048815981CE59D0402403B001259F700D31
:103CA00011248A0146E0000F111F4A95E1F751E304
:103CB000A52E54E0B52E21E0AC01440F551F480F4E
:103CC000591FE080F180E40EF51ED7013C91D5012B
:103CD0003C93E080F180E40EF51ED70111963C91F3
:103CE000D50111963C93E080F1804E0D5F1DDA0105
:103CF00012963C91D50112963C93418552854350D2
:103D000051094230510508F0D7C0A801211101C066
:103D1000AB01480F591F5170E380F4804E155F05C9
:103D2000A9F401969170948383832C2510C082811D
:103D300090E00196A7CF8381948121E030E0C256C4
:103D4000DF4F39832883CE59D0409FCFCA0153E03B
:103D5000A50EB11CA1E3BAE0AA15BB0509F0ACCFD2
:103D6000D0901E0D8091210D9091220DA091230DD8
:103D7000B091240D892B8A2B8B2BD9F00E94A7039D
:103D800000912D0410912E0420912F0430913004C5
:103D9000601B710B820B930B0091210D1091220D72
:103DA0002091230D3091240D60177107820793072E
:103DB000C8F20E94A70360932D0470932E04809391
:103DC0002F0490933004E091290DF0912A0D309743
:103DD00059F04091250D5091260D6091270D70915D
:103DE000280D8D2D1995D82EE0902B04F0902C04E1
:103DF0004D2C512C712C612CE114F10409F480C07C
:103E0000D7011C96BC901C9780911F0D9091200D9E
:103E10008436910510F41C961C92D701ED91FC910B
:103E20008280938019821A821B82DD2091F18701A2
:103E30000A5F1F4FF0E0E0E0D8012D918D012223B1
:103E400021F11296AC90AA2001F130E050E040E060
:103E50002F5F3F4F4F4F5F4FC301B2010E941E21A2
:103E60009B01AC018A2D90E0B0E0A0E0BC01CD0147
:103E70006F5F7F4F8F4F9F4F0E941E21A1E0B0E0E8
:103E8000AC0FBD1FAE0FBF1F8C933196E330F10511
:103E900099F609811A812B81F70145855685628142
:103EA0007381C701F4011995D7011C96BC921C9728
:103EB0001496ED90FC90A0CF803CB1E09B073CF0C5
:103EC00021110AC040EC5FEF840F951F40CF803472
:103ED00091058CF4211111C00196811532E09307F0
:103EE00039F08034910509F020CF90E080E01DCFBB
:103EF00080EC91E01ACF222329F340E450E0E4CF94
:103F00008091290490912A048C010F5F1F4F109318
:103F10002A04009329044997B4F10E94CC038090AD
:103F2000250490902604A0902704B09028049B01BB
:103F3000AC01281939094A095B0921F421E030E074
:103F400040E050E0E8EEF3E00E9FB0010F9F700DEF
:103F50001E9F700D1124072E000C880B990B0E94D8
:103F600042213093200D20931F0D10922A041092AD
:103F700029040E94CC036093250470932604809347
:103F80002704909328040091310A1091320AF80115
:103F9000E25FF94F8081D8011B96ED91FC91B6E06C
:103FA0008B9FE00DF11D1124E080F1800E9493139E
:103FB000E1E080913E0D8111E0E0E195F0E0E55D0A
:103FC000F24F848980680E948D13E114F10429F076
:103FD000B7018BE29DE00E94D215F80181859285A0
:103FE00004E712E08530910538F4880F991FFC0131
:103FF000E45DFD4F00811181E0913E0DE23008F05B
:104000004CC0E150F0E0E55DF24F848980680E9489
:104010008D130115110529F0B8018BE29DE00E9476
:10402000D2150091310A1091320A0E94CE018D38CA
:104030009105ACF10E94CE0187399105C4F1009140
:10404000310A1091320A0E94CE01853F91400CF452
:104050005FC00E94CE018F3F91400CF463C00E946C
:10406000CE01893491400CF470C00E94CE0183359A
:1040700091400CF474C00E94CE01853E92400CF435
:104080007DC00E94CE018F3E92400CF058C0D801F6
:104090001A961C921E92199752C0E1E0B3CF0E946B
:1040A000CE019101281B390B2B30310544F6F80164
:1040B000E25FF94F808190E00196D801A35FB94F8C
:1040C0006C9170E00E942E2180833196E080F18017
:1040D00046E0489F9001499F300D1124D8011B965E
:1040E000ED91FC91E20FF31F60817181CE01019689
:1040F0000E94BD15A801435F5F4FBE016F5F7F4FF8
:10410000C7010E941C17CE0101960E941F1597CF70
:104110000E94CE0124EF31E0281B390B2B303105F2
:104120000CF09DCFD80117968D919C91029751F478
:1041300081E090E0F80190878783928781870E94D1
:10414000EA023CCC82E090E0F5CF0E94CE0128E468
:1041500031E0281B390B2B3031050CF08CCFD80106
:1041600015968D919C91039731F484E090E0F801CD
:1041700096838583E2CF83E090E0F9CF0E94CE0161
:1041800024EE32E0281B390B2B303105C4F67FCFEB
:104190001F93FC0199278827BC01E89411911032E4
:1041A000E9F3193010F01E30C8F31B3251F01D3204
:1041B00049F4689406C00E94EF20610F711D811DB3
:1041C000911D119110531A30B0F33EF490958095E3
:1041D000709561957F4F8F4F9F4F1F910895592F75
:1041E000482F372F262F660F771F881F991F660FBE
:1041F000771F881F991F620F731F841F951F660FFB
:10420000771F881F991F08950E940F21A59F900D69
:10421000B49F900DA49F800D911D11240895A29F1D
:10422000B001B39FC001A39F700D811D1124911D8A
:10423000B29F700D811D1124911D0895DB018F9394
:104240009F930E940421BF91AF91A29F800D911D69
:10425000A39F900DB29F900D1124089597FB072EF8
:1042600016F4009407D077FD09D00E94732107FC53
:1042700005D03EF4909581959F4F08957095619576
:104280007F4F0895A1E21A2EAA1BBB1BFD010DC092
:10429000AA1FBB1FEE1FFF1FA217B307E407F507F6
:1042A00020F0A21BB30BE40BF50B661F771F881FD2
:1042B000991F1A9469F760957095809590959B0168
:1042C000AC01BD01CF010895EE0FFF1F881F8BBF0A
:1042D0000790F691E02D19940E940F21B7FF0895E1
:1042E000821B930B0895AA1BBB1B51E107C0AA1F99
:1042F000BB1FA617B70710F0A61BB70B881F991F87
:104300005A95A9F780959095BC01CD0108950F931A
:104310001F93CF93DF938230910510F482E090E0F9
:10432000E091450DF091460D30E020E0B0E0A0E0D6
:10433000309799F42115310509F44AC0281B390B2F
:1043400024303105D8F58A819B816115710589F189
:10435000FB0193838283FE0111C040815181028160
:10436000138148175907E0F04817590799F4109737
:1043700061F012960C93129713961C933296CF010C
:10438000DF91CF911F910F9108950093450D1093E8
:10439000460DF4CF2115310551F04217530738F07F
:1043A000A901DB019A01BD01DF01F801C1CFEF01D5
:1043B000F9CF9093460D8093450DCDCFFE01E20FCE
:1043C000F31F819391932250310939832883D7CFEA
:1043D0002091430D3091440D232B41F4209106028E
:1043E000309107023093440D2093430D2091040235
:1043F000309105022115310541F42DB73EB74091AA
:10440000080250910902241B350BE091430DF091F5
:10441000440DE217F307A0F42E1B3F0B28173907B2
:1044200078F0AC014E5F5F4F2417350748F04E0F10
:104430005F1F5093440D4093430D819391939FCF01
:10444000F0E0E0E09CCFCF93DF930097E9F0FC0130
:10445000329713821282A091450DB091460DED0165
:1044600030E020E01097A1F420813181820F931F6A
:104470002091430D3091440D2817390709F061C090
:10448000F093440DE093430DDF91CF910895EA013D
:10449000CE17DF07E8F54A815B819E014115510582
:1044A000B1F7E901FB83EA8349915991C40FD51F04
:1044B000EC17FD0761F4808191810296840F951FAE
:1044C000E90199838883828193819B838A83F0E0C9
:1044D000E0E012968D919C9113970097B9F52D917C
:1044E0003C911197CD010296820F931F2091430DAD
:1044F0003091440D2817390739F6309751F510924D
:10450000460D1092450DB093440DA093430DBCCFC2
:10451000D383C28340815181840F951FC817D90767
:1045200061F44E5F5F4F88819981480F591F518315
:1045300040838A819B81938382832115310509F011
:10454000B0CFF093460DE093450D9ECFFD01DC0109
:10455000C0CF13821282D7CF4F925F926F927F9219
:104560008F929F92AF92BF92CF92DF92EF92FF9283
:104570000F931F93CF93DF938C01009799F4CB0196
:10458000DF91CF911F910F91FF90EF90DF90CF902F
:10459000BF90AF909F908F907F906F905F904F9063
:1045A0000C948721FC01E60FF71F9C012250310972
:1045B000E217F30708F4AEC0D901CD91DC91119751
:1045C000C617D70720F1C530D10578F0CE01049782
:1045D0008617970750F0C61BD70B2297C193D1932C
:1045E0006D937C93CF010E942322C801DF91CF916C
:1045F0001F910F91FF90EF90DF90CF90BF90AF9001
:104600009F908F907F906F905F904F9008955B0187
:10461000AC1ABD0A4C018C0E9D1EA091450DB091A7
:10462000460D512C412CF12CE12C109731F5809145
:10463000430D9091440D8815990509F05CC046160C
:10464000570608F058C08091040290910502009727
:1046500041F48DB79EB74091080250910902841B26
:10466000950BE817F90708F055C0F093440DE09357
:10467000430DF90171836083B8CF8D919C9111979F
:1046800012966C90129713967C901397A815B90503
:1046900059F56C0142E0C40ED11CCA14DB0420F1B0
:1046A000AC014A195B09DA011296159780F0628213
:1046B000738251834083D9016D937C93E114F1049B
:1046C00071F0D7011396FC93EE9312978ECF22963A
:1046D0008C0F9D1FF90191838083F301EFCFF0933D
:1046E000460DE093450D81CF4816590608F42C017C
:1046F0007D01D3019ACFCB010E9487217C010097D5
:1047000049F0AE01B8010E949F23C8010E942322F4
:1047100087016BCF10E000E068CF81E090E0F89473
:104720000C94D223FB01DC0104C08D91019080190F
:1047300021F441505040C8F7881B990B0895FB01A4
:10474000DC0102C001900D9241505040D8F708950D
:10475000FC018191861721F08823D9F799270895C4
:104760003197CF010895FB01DC018D9101908019F3
:104770000110D9F3990B0895FB01DC0101900D9212
:104780000020E1F70895FB01DC014150504048F062
:1047900001900D920020C9F701C01D924150504078
:1047A000E0F70895F894FFCFFFFFFFFF0000470DEB
:1047B0008000000000002715271527157B127712AF
:1047C0007412000000003112D511D3117B12771240
:1047D000E401720F9A03A103AD03B803C103000003
:1047E0000000D60EB90EA90E800E890E030F0D0F14
:1047F000000000007D02E7011402CA024502230204
:104800003702000000001F0EE701190C310F0000F5
:1048100000003814E701320F310F0D0A002F002E6F
:1048200048415400506C6561736520696E69746914
:10483000616C697A652074686520534420636172F5
:104840006420666972737421004572726F72206F02
:1048500070656E696E672066696C652E00496E69C9
:104860007469616C697A696E672053442063617270
:10487000642E2E2E005344206361726420696E6999
:104880007469616C697A65642E004661696C65645F
:1048900020746F20696E697469616C697A65205350
:1048A0004420636172642E205468696E67732074BB
:1048B0006F20636865636B3A00312E204973206175
:1048C000206361726420696E7365727465643F2051
:1048D000497320697420696E207468652072696765
:1048E000687420666F726D61743F204641543136A2
:1048F000206F722046415433323F00322E20446FE5
:1049000075626C6520636865636B20796F757220D2
:10491000776972696E672E204D49534F203D2035CF
:10492000303B204D4F5349203D2035313B205343F0
:104930004B203D2035323B204353203D2035333B37
:10494000200053544154494300524947485420538E
:1049500048494654004C4546542053484946540063
:10496000555020534849465400444F574E20534811
:044970004946540060
:020000040003F7
:10E000000D9489F10D94B2F10D94B2F10D94B2F129
:10E010000D94B2F10D94B2F10D94B2F10D94B2F1F0
:10E020000D94B2F10D94B2F10D94B2F10D94B2F1E0
:10E030000D94B2F10D94B2F10D94B2F10D94B2F1D0
:10E040000D94B2F10D94B2F10D94B2F10D94B2F1C0
:10E050000D94B2F10D94B2F10D94B2F10D94B2F1B0
:10E060000D94B2F10D94B2F10D94B2F10D94B2F1A0
:10E070000D94B2F10D94B2F10D94B2F10D94B2F190
:10E080000D94B2F10D94B2F10D94B2F10D94B2F180
:10E090000D94B2F10D94B2F10D94B2F10D94B2F170
:10E0A0000D94B2F10D94B2F10D94B2F10D94B2F160
:10E0B0000D94B2F10D94B2F10D94B2F10D94B2F150
:10E0C0000D94B2F10D94B2F10D94B2F10D94B2F140
:10E0D0000D94B2F10D94B2F10D94B2F10D94B2F130
:10E0E0000D94B2F141546D656761323536300041AF
:10E0F000726475696E6F206578706C6F72657220DE
:10E1000073746B3530305632206279204D4C530099
:10E11000426F6F746C6F616465723E004875683F52
:10E1200000436F6D70696C6564206F6E203D200048
:10E130004350552054797065202020203D20005FF9
:10E140005F4156525F415243485F5F3D2000415658
:10E1500052204C696243205665723D20004743437C
:10E160002056657273696F6E203D20004350552024
:10E1700049442020202020203D20004C6F7720663D
:10E18000757365202020203D20004869676820665F
:10E190007573652020203D200045787420667573D6
:10E1A00065202020203D20004C6F636B2066757336
:10E1B000652020203D20004D617220203720323024
:10E1C000313300312E362E3800342E332E350056A2
:10E1D00023202020414444522020206F7020636F70
:10E1E00064652020202020696E73747275637469E1
:10E1F0006F6E2061646472202020496E74657272B3
:10E20000757074006E6F20766563746F7200726A49
:10E210006D702020006A6D70200057686174207056
:10E220006F72743A00506F7274206E6F7420737541
:10E2300070706F72746564004D7573742062652030
:10E2400061206C6574746572002000577269747483
:10E25000696E672045450052656164696E672045B7
:10E26000450045452065727220636E743D00504F35
:10E27000525400303D5A65726F2061646472003FF1
:10E280003D43505520737461747300403D454550C3
:10E29000524F4D207465737400423D426C696E6B41
:10E2A000204C454400453D44756D70204545505215
:10E2B0004F4D00463D44756D7020464C415348001B
:10E2C000483D48656C70004C3D4C69737420492F83
:10E2D0004F20506F72747300513D51756974005234
:10E2E0003D44756D702052414D00563D73686F7707
:10E2F00020696E7465727275707420566563746FF0
:10E30000727300593D506F727420626C696E6B00BD
:10E310002A0011241FBECFEFD1E2DEBFCDBF01E046
:10E320000CBF12E0A0E0B2E0EEE1FDEF03E00BBFB6
:10E3300002C007900D92A030B107D9F712E0A0E01B
:10E34000B2E001C01D92AE30B107E1F70F9460F367
:10E350000D948DFE01E20EBF0FEF0DBF11241FBE05
:10E360000D9460F30D9400F020E030E040ED57E0B4
:10E3700005C0FA013197F1F72F5F3F4F2817390792
:10E38000C0F308959C01260F311DC901A0E0B0E043
:10E390002F5F3F4FABBFFC018791882361F08093D3
:10E3A000C6008091C00086FFFCCF8091C0008064D1
:10E3B0008093C000EACF08958DE08093C6008091DD
:10E3C000C00086FFFCCF8091C00080648093C000B5
:10E3D0008AE08093C6008091C00086FFFCCF8091C8
:10E3E000C00080648093C00008950F94C2F10F9420
:10E3F000DCF10895FC019081992359F09093C600B7
:10E400008091C00086FFFCCF8091C0008064809323
:10E41000C0003196992379F70895282F982F929567
:10E420009F70892F805D8A3308F0895F8093C600D2
:10E430008091C00086FFFCCF8091C00080648093F3
:10E44000C000822F8F70982F905D9A3308F0995FEB
:10E450009093C6008091C00086FFFCCF8091C000E1
:10E4600080648093C00008959C01FB01853691056E
:10E470001CF46330710594F0C90164E670E00F94F8
:10E480002EFE605D7F4F6093C6008091C00086FFC6
:10E49000FCCF8091C00080648093C0002B30310598
:10E4A00014F43297B4F0C90164E670E00F942EFEC4
:10E4B0006AE070E00F942EFE605D7F4F6093C600AF
:10E4C0008091C00086FFFCCF8091C0008064809363
:10E4D000C000C9016AE070E00F942EFEC0968093E0
:10E4E000C6008091C00086FFFCCF8091C000806490
:10E4F0008093C00008951F93182F8EE692EE60E07F
:10E500000F94C2F11093C6008091C00086FFFCCF2B
:10E510008091C00080648093C0000F94DCF11F9153
:10E5200008952F923F924F925F926F927F928F92B7
:10E530009F92AF92BF92CF92DF92EF92FF920F9392
:10E540001F93DF93CF93CDB7DEB762970FB6F894E2
:10E55000DEBF0FBECDBF382E622ECA01DB015C01CB
:10E560006D01772420E2222E2E010894411C511CBB
:10E570008BC081E0A81680E0B80681E0C80680E084
:10E58000D80628F0C601AA27BB270F940DF2BB2797
:10E59000AD2D9C2D8B2D0F940DF28A2D0F940DF225
:10E5A0002092C6008091C00086FFFCCF8091C00001
:10E5B00080648093C0009DE29093C6008091C0006B
:10E5C00086FFFCCF8091C00080648093C0002092C1
:10E5D000C6008091C00086FFFCCF8091C00080649F
:10E5E0008093C00019828601750188249924A1E0D6
:10E5F0003A1651F03A1620F0B2E03B1661F409C029
:10E600000BBFF701779007C0C7010F9477FE782EF4
:10E6100002C0F7017080872D0F940DF22092C60082
:10E620008091C00086FFFCCF8091C0008064809301
:10E63000C000872D8052F401EF70F0708F3520F408
:10E64000E40DF51D708204C0E40DF51D8EE280839B
:10E650000894E11CF11C011D111D0894811C911CE2
:10E6600090E18916910409F0C2CF80E190E0A0E02A
:10E67000B0E0A80EB91ECA1EDB1E198AC2010F9493
:10E68000FAF10F94DCF16A94662009F072CF629679
:10E690000FB6F894DEBF0FBECDBFCF91DF911F91B3
:10E6A0000F91FF90EF90DF90CF90BF90AF909F9031
:10E6B0008F907F906F905F904F903F902F90089534
:10E6C0002F923F924F925F926F927F928F929F9282
:10E6D000AF92BF92CF92DF92EF92FF920F931F9370
:10E6E000DF93CF93CDB7DEB7CD53D1400FB6F894BB
:10E6F000DEBF0FBECDBF01E20EBF0FEF0DBF94B75F
:10E70000F894A89514BE80916000886180936000A1
:10E7100010926000789493FF05C0E0910002F091A0
:10E7200001021995279A2F9A8091C00082608093E8
:10E73000C00080E18093C40088E18093C1000000A4
:10E74000EE24FF24870144E0A42EB12CCC24DD2448
:10E7500024C0C5010197F1F70894E11CF11C011DCB
:10E76000111D21E2E2162EE4F20620E0020720E06D
:10E77000120718F031E0C32ED12CC801B70127ECE5
:10E780003BE140E050E00F9441FE611571058105C9
:10E79000910519F485B1805885B98091C00087FD35
:10E7A00003C0C114D104A9F2A6014F5F5F4FC25E3E
:10E7B000DE4F59834883CE51D140C25EDE4F8881FF
:10E7C0009981CE51D140019711F00D9410FEC05D9A
:10E7D000DE4F19821882C053D14060E0C15DDE4F28
:10E7E0001882CF52D14088249924C35DDE4F19820C
:10E7F0001882CD52D140C05EDE4F188219821A8233
:10E800001B82C052D140CE5CDE4F188219821A8220
:10E810001B82C253D140EE24FF2487010BBFF701B6
:10E8200007911691C45CDE4F19830883CC53D14005
:10E830000D940BFEC25EDE4F28813981CE51D1404E
:10E840002130310509F52091C600C25EDE4F1982E4
:10E850001882CE51D14022C02F5F3F4F4F4F5F4FA4
:10E86000213082E138078AE7480780E0580780F0C6
:10E87000C45CDE4FE881F981CC53D140EF5FFF4F9C
:10E8800019F0EE27FF27099420E030E040E050E047
:10E890008091C00087FFE0CF2091C600C35DDE4FAE
:10E8A00048815981CD52D1404F5F5F4FC35DDE4FEC
:10E8B00059834883CD52D140213209F063C64A3092
:10E8C000510508F05FC60894811C911C53E0851621
:10E8D000910409F059C600E010E018C081E280936D
:10E8E000C6008091C00086FFFCCF8091C00080648C
:10E8F0008093C0002F5F3F4F2931310579F70F9486
:10E90000DCF10F5F1F4F0530110519F020E030E0FA
:10E91000E5CF10920A0210920B0210920C02109294
:10E920000D02109206021092070210920802109235
:10E930000902109202021092030210920402109235
:10E9400005028FEE90EE60E00F94F5F180E191EE1C
:10E9500060E00F94C2F18091C00087FFFCCF9091DE
:10E96000C600903608F09F759032B8F09093C600BC
:10E970008091C00086FFFCCF8091C00080648093AE
:10E98000C000A0E2A093C6008091C00086FFFCCF2B
:10E990008091C00080648093C000983409F4D7C18E
:10E9A0009934B8F4923409F459C1933458F490333B
:10E9B00019F1903308F4E3C59F33A1F1903409F0C5
:10E9C000DEC5BDC0953409F470C1963409F0D7C5D1
:10E9D00098C1923509F42BC2933538F49C3409F46C
:10E9E000F5C1913509F0CBC518C2963509F445C279
:10E9F000993509F0C4C567C483E792EE62E00F94CD
:10EA0000F5F110920602109207021092080210927D
:10EA1000090210920A0210920B0210920C0210923C
:10EA20000D0213C18FE792EE62E00F94F5F18FEEC5
:10EA300090EE60E00F94F5F181E291EE60E00F94CA
:10EA4000C2F187EB91EE60E00F94F5F180E391EE77
:10EA500060E00F94C2F184EE90EE60E00F94F5F167
:10EA60008FE391EE60E00F94C2F186E090E061E008
:10EA700070E00F9434F20F94DCF18DE591EE60E0DC
:10EA80000F94C2F189EC91EE60E00F94F5F18EE401
:10EA900091EE60E00F94C2F183EC91EE60E00F9490
:10EAA000F5F18CE691EE60E00F94C2F18EE10F94E7
:10EAB0000DF288E90F940DF281E00F940DF20F949E
:10EAC000DCF18BE791EE60E00F94C2F119E0E0E039
:10EAD000F0E010935700E4918E2F0F940DF20F94F5
:10EAE000DCF18AE891EE60E00F94C2F1E3E0F0E03F
:10EAF00010935700E4918E2F0F940DF20F94DCF1D8
:10EB000089E991EE60E00F94C2F1E2E0F0E0109349
:10EB10005700E4918E2F0F940DF20F94DCF188EAE8
:10EB200091EE60E00F94C2F1E1E0F0E01093570045
:10EB30001491812F0F940DF20F94DCF107CF8BE825
:10EB400092EE62E00F94F5F18BE492EE60E00F94A8
:10EB5000F5F10F94DCF100E010E019C0C8016F2D51
:10EB60000F947FFEFF2031F489E492EE60E00F9471
:10EB7000C2F10BC0F092C6008091C00086FFFCCFAE
:10EB80008091C00080648093C0000F5F1F4FC80158
:10EB900081519F41A0E0B0E0ABBFFC01F790BAE229
:10EBA000FB1621F0E2E000301E07C1F60F94DCF105
:10EBB0000F94DCF187E592EE60E00F94F5F10F948D
:10EBC000DCF1CC24DD2400E010E01EC0C8010F946D
:10EBD00077FEF82E882331F489E492EE60E00F94FA
:10EBE000C2F10BC08093C6008091C00086FFFCCFAD
:10EBF0008091C00080648093C000FE1419F00894D6
:10EC0000C11CD11C0F5F1F4FC80181519F41A0E063
:10EC1000B0E0ABBFFC01E790FAE2EF1621F022E092
:10EC20000030120799F60F94DCF10F94DCF182E6C4
:10EC300092EE60E00F94C2F1C60161E070E00F94C3
:10EC400034F20F94DCF10F94DCF110920202109276
:10EC50000302109204021092050278CE89E992EE26
:10EC600062E00F94F5F1279A2F9A16C02F9880E052
:10EC700090E0E0EDF7E03197F1F7019684369105E9
:10EC8000C1F72F9A80E090E0E0EDF7E03197F1F7DF
:10EC9000019684369105C1F78091C00087FFE6CFC9
:10ECA0008091C00087FFFCCF64C485EA92EE62E0E9
:10ECB0000F94F5F140910202509103026091040219
:10ECC0007091050281E020E10F9491F2809102029F
:10ECD00090910302A0910402B091050280509F4FD1
:10ECE000AF4FBF4F8093020290930302A0930402A0
:10ECF000B093050280509041A040B04008F426CE69
:10ED0000A4CF83EB92EE62E00F94F5F140910602FE
:10ED100050910702609108027091090280E020E1A1
:10ED20000F9491F28091060290910702A09108023F
:10ED3000B091090280509F4FAF4FBF4F80930602A2
:10ED400090930702A0930802B0930902FFCD80ECD4
:10ED500092EE62E00F94F5F183E792EE60E00F949B
:10ED6000F5F18FE792EE60E00F94F5F18BE892EE0B
:10ED700060E00F94F5F189E992EE60E00F94F5F10F
:10ED800085EA92EE60E00F94F5F183EB92EE60E09D
:10ED90000F94F5F180EC92EE60E00F94F5F187ECC2
:10EDA00092EE60E00F94F5F188ED92EE60E00F9442
:10EDB000F5F18FED92EE60E00F94F5F18AEE92EEB0
:10EDC00060E00F94F5F183E093EEBDCD87EC92EE19
:10EDD00062E00F94F5F181E40F947BF282E40F94EA
:10EDE0007BF283E40F947BF284E40F947BF285E45E
:10EDF0000F947BF286E40F947BF287E40F947BF20E
:10EE000088E40F947BF28AE40F947BF28BE40F94F6
:10EE10007BF28CE40F947BF299CD88ED92EE62E068
:10EE20000F94F5F1772473948824992409C48FED05
:10EE300092EE62E00F94F5F140910A0250910B02BC
:10EE400060910C0270910D0282E020E10F9491F22A
:10EE500080910A0290910B02A0910C02B0910D02D8
:10EE600080509F4FAF4FBF4F80930A0290930B0289
:10EE7000A0930C02B0930D0269CD8AEE92EE62E08F
:10EE80000F94F5F184EE90EE60E00F94F5F18FECC5
:10EE900091EE60E00F94F5F1662477244301CC5D98
:10EEA000DE4F19821882C452D140D401C301B695F5
:10EEB000A79597958795CA5DDE4F88839983AA8326
:10EEC000BB83C652D140CC5DDE4FA881B981C4520C
:10EED000D1401196CC5DDE4FB983A883C452D14096
:10EEE000CD0162E070E00F9434F2B0E2B093C6005E
:10EEF0008091C00086FFFCCF8091C0008064809329
:10EF0000C000EDE2E093C6008091C00086FFFCCF18
:10EF10008091C00080648093C000F0E2F093C6004E
:10EF20008091C00086FFFCCF8091C00080648093F8
:10EF3000C000CA5DDE4FE880F9800A811B81C6529D
:10EF4000D140BB27A12F902F8F2D0F940DF2CA5DBA
:10EF5000DE4F8881C652D1400F940DF2B0E2FB2EF5
:10EF6000F092C6008091C00086FFFCCF8091C00067
:10EF700080648093C0000DE30093C6008091C000C0
:10EF800086FFFCCF8091C00080648093C00010E2B7
:10EF90001093C6008091C00086FFFCCF8091C00016
:10EFA00080648093C0008BBEF3012791C65DDE4F65
:10EFB0002883CA52D140A22EBB24CC24DD2408943D
:10EFC000611C711C811C911C8BBEF3018791282E42
:10EFD0003324442455240894611C711C811C911C09
:10EFE0008BBEF3013791C55DDE4F3883CB52D140E4
:10EFF0000894611C711C811C911C8BBEF30147910C
:10F00000C45DDE4F4883CC52D140ADEFEA2EAFEF66
:10F01000FA2EAFEF0A2FAFEF1A2F6E0C7F1C801E57
:10F02000911E142D032DF22CEE24EA0CFB1C0C1D5A
:10F030001D1D0F940DF220E22093C6008091C000A8
:10F0400086FFFCCF8091C00080648093C000C65DC5
:10F05000DE4F8881CA52D1400F940DF230E23093D6
:10F06000C6008091C00086FFFCCF8091C000806404
:10F070008093C000C45DDE4F8881CC52D1400F9494
:10F080000DF240E24093C6008091C00086FFFCCFA5
:10F090008091C00080648093C000C55DDE4F888190
:10F0A000CB52D1400F940DF250E25093C6008091A4
:10F0B000C00086FFFCCF8091C00080648093C000B8
:10F0C0008FEFE8168FEFF80680E0080780E018075A
:10F0D00031F484E092EE60E00F94C2F1DFC0D80119
:10F0E000C7018070907CA070B0708050904CA040A0
:10F0F000B040D1F52FEF3FE340E050E0E222F322B1
:10F1000004231523CA5DDE4FA880B980CA80DB8046
:10F11000C652D140AE0CBF1CC01ED11EAA0CBB1CD7
:10F12000CC1CDD1C8EE092EE60E00F94C2F1BB2798
:10F13000A12F902F8F2D0F940DF28E2D0F940DF285
:10F1400030E23093C6008091C00086FFFCCF8091F2
:10F15000C00080648093C0004EE34093C60080915D
