:100000000C9465000C948D000C948D000C948D0064
:100010000C948D000C948D000C948D000C948D002C
:100020000C948D000C948D000C948D000C948D001C
:100030000C948D000C948D000C948D000C948D000C
:100040000C94BD100C948D000C948B100C946510C6
:100050000C948D000C948D000C948D000C948D00EC
:100060000C948D000C948D0000000008000201002B
:100070000003040700000000000000000000000072
:10008000250028002B0000000000240027002A0083
:10009000040404040404040402020202020203032E
:1000A0000303030301020408102040800102040836
:1000B00010200102040810207C3C3E5E2B3D3F2FA7
:1000C0005B5D3B2C2A225C00071111241FBECFEF81
:1000D000D8E0DEBFCDBF25E0AEE4B2E001C01D92A6
:1000E000A239B207E1F712E0A0E0B1E0E2E6FDE2FA
:1000F00002C005900D92AE34B107D9F710E0C5E605
:10010000D0E004C02197FE010E948714C436D107B5
:10011000C9F70E9453110C94AF160C94000090E0A4
:10012000FC01EC55FF4F249180579F4FFC018491B7
:10013000882399F090E0880F991FFC01EA57FF4F40
:10014000A591B491FC01E458FF4F859194918FB72C
:10015000F894EC91E22BEC938FBF0895AF92BF928D
:10016000CF92DF92EF92FF920F931F93CF93DF9383
:100170006C017B018B01040F151FEB015E01AE18B2
:10018000BF08C017D10759F06991D601ED91FC91D4
:100190000190F081E02DC6010995892B79F7C50101
:1001A000DF91CF911F910F91FF90EF90DF90CF9053
:1001B000BF90AF900895FC01538D448D252F30E002
:1001C000842F90E0821B930B541710F0CF96089564
:1001D00001970895FC01918D828D981761F0A28D91
:1001E000AE0FBF2FB11D5D968C91928D9F5F9F7357
:1001F000928F90E008958FEF9FEF0895FC01918D0D
:10020000828D981731F0828DE80FF11D858D90E079
:1002100008958FEF9FEF0895FC01918D228D892F16
:1002200090E0805C9F4F821B91098F7399270895FE
:1002300085EA94E00E940C0121E0892B09F420E07A
:10024000822F089580E090E0892B29F00E94180108
:1002500081110C9400000895FC01A48DA80FB92F02
:10026000B11DA35ABF4F2C91848D90E001968F73DE
:100270009927848FA689B7892C93A089B1898C91FD
:10028000837080648C93938D848D981306C002884C
:10029000F389E02D80818F7D80830895EF92FF9216
:1002A0000F931F93CF93DF93EC0181E0888F9B8D99
:1002B0008C8D98131AC0E889F989808185FF15C053
:1002C0009FB7F894EE89FF896083E889F989808176
:1002D0008370806480839FBF81E090E0DF91CF9145
:1002E0001F910F91FF90EF900895F62E0B8D10E067
:1002F0000F5F1F4F0F731127E02E8C8D8E110CC0D6
:100300000FB607FCFACFE889F989808185FFF5CF20
:10031000CE010E942C01F1CFEB8DEC0FFD2FF11DD2
:10032000E35AFF4FF0829FB7F8940B8FEA89FB895D
:1003300080818062CFCFCF93DF93EC01888D8823BB
:10034000B9F0AA89BB89E889F9898C9185FD03C038
:10035000808186FD0DC00FB607FCF7CF8C9185FF1D
:10036000F2CF808185FFEDCFCE010E942C01E9CF35
:10037000DF91CF91089590E0FC01E859FF4F24915F
:10038000FC01EC55FF4F3491FC01E057FF4FE49125
:10039000EE23C9F0222339F0233001F1A8F42130F3
:1003A00019F1223029F1F0E0EE0FFF1FE458FF4F62
:1003B000A591B4918FB7F894EC91611126C0309556
:1003C0003E233C938FBF08952730A9F02830C9F011
:1003D000243049F7809180008F7D03C08091800098
:1003E0008F7780938000DFCF84B58F7784BDDBCF9C
:1003F00084B58F7DFBCF8091B0008F778093B00064
:10040000D2CF8091B0008F7DF9CF3E2BDACF2FB7BE
:10041000F8946091590270915A0280915B02909118
:100420005C022FBF08958FB7F89480914F028FBF61
:10043000089561E0FC0184810E94BB0180914E021D
:10044000811110924E0208958EBD00000DB407FE7A
:10045000FDCF8EB508958FEF0C9424020F931F9358
:10046000CF93DF93EC010E9407028B010E942B02C5
:100470008F3F69F00E940702601B710B6C177D07AC
:10048000A8F380E0DF91CF911F910F91089581E053
:10049000F9CF8CBD9DBD0895CF93DF93EC01809182
:1004A0004E02811109C081E080934E028091420585
:1004B000909143050E94490260E08C81DF91CF91C9
:1004C0000C94BB018F929F92AF92BF92FF920F93B9
:1004D0001F93CF93DF93EC01F62E49015A018E81D1
:1004E000882389F08F8198859C012F5F3F4F388743
:1004F0002F838230924018F40E942B02F3CFCE015A
:100500000E9419021E82CE010E944C028CE291E0F0
:100510000E942E028F2D80640E94240208E110E0C8
:10052000D501C401002E04C0B695A795979587956F
:100530000A94D2F70E94240208501109083F8FEF55
:10054000180771F785E9FF2021F028E087E8F2120B
:100550008FEF0E94240210E00E942B028A8787FFFF
:1005600004C01F3F11F01F5FF7CFDF91CF911F91A4
:100570000F91FF90BF90AF909F908F900895AF9292
:10058000BF92CF92DF92EF92FF920F931F93CF9380
:10059000DF93EC016901C801820F931F8130924003
:1005A00050F58E81882379F088819981AA81BB8159
:1005B00084179507A607B70731F48F819885C81669
:1005C000D90608F042C0488359836A837B838B85B0
:1005D000833039F089E0440F551F661F771F8A95D5
:1005E000D1F79A01AB0161E1CE010E94620288233A
:1005F00089F083E08D83CE010E94190280E0DF91B3
:10060000CF911F910F91FF90EF90DF90CF90BF900F
:10061000AF9008950E9407025B010E942B028A8717
:100620008F3F69F40E9407026A197B096D3271409D
:10063000A0F38FE08D83CE010E941902DCCF8E3FA4
:1006400089F418861F8281E08E838F8198858C15AE
:100650009D0550F40E942B028F8198850196988702
:100660008F83F3CF8DE0E6CF6701E00EF11E0E948D
:100670002B02F60181936F01EE15FF05C1F78F8103
:100680009885080F191F18870F838985882319F00B
:1006900001151240A0F08E81882389F08F81988502
:1006A0009C012F5F3F4F38872F838230924018F490
:1006B0000E942B02F3CFCE010E9419021E8281E01C
:1006C0009ECFCF92DF92EF92FF920F93CF93DF9363
:1006D000EC01690182E1411551056105710599F04F
:1006E0008B85833039F089E0440F551F661F771FD3
:1006F0008A95D1F79A01AB0168E1CE010E946202AE
:10070000882319F084E08D832DC08EEF0E9424028F
:1007100076018EEFD81AF70181917F010E942402A1
:10072000EC14FD04C1F78FEF0E9424028FEF0E94AA
:1007300024020E942B028A878F71853071F4011187
:1007400016C0CE010E94190281E0DF91CF910F9176
:10075000FF90EF90DF90CF90089581E18D83CE01DF
:100760000E941902CE010E94190280E0EECF88E5B6
:1007700092E00E942E02811102C085E1C4CF20E0E8
:1007800030E0A9016DE0CE010E946202882311F0E1
:1007900084E1B9CF0E942B028111FACFD2CF0F93FF
:1007A0004091500250915102609152027091530257
:1007B000411551056105710599F0082F25EA32E0D0
:1007C0008091A2029091A3020E946103882349F0C4
:1007D0001092500210925102109252021092530243
:1007E00081E00F9108950F93CF93C82F8091A402B9
:1007F000811105C0C1E08C2FCF910F9108954091D8
:1008000000015091010160910201709103010C2FD0
:1008100025EA32E08091A2029091A3020E94610336
:10082000811102C0C0E0E7CFCC2321F381E00E9418
:10083000CF038823B9F31092A402DDCF8F929F9249
:10084000AF92BF92EF92FF920F931F93CF934B0102
:100850005C01C42F8091000190910101A0910201DF
:10086000B091030188159905AA05BB0551F181E0F6
:100870000E94F30381110BC080E0CF911F910F9173
:10088000FF90EF90BF90AF909F908F90089585EA72
:10089000E82E82E0F82E00E012E030E020E0B50122
:1008A000A4018091A2029091A3020E94BF0288231A
:1008B00019F38092000190920101A0920201B0927E
:1008C00003014091A4024C2B4093A40281E0D5CFB8
:1008D0008F929F92AF92BF92CF92DF92EF92FF9250
:1008E000CF9324E435E03093A3022093A20288231F
:1008F00009F46DC040E060E070E0CB010E941E048E
:1009000081110BC080E0CF91FF90EF90DF90CF90EE
:10091000BF90AF909F908F900895809163048F77E0
:1009200089F780916F0490917004A0917104B09147
:10093000720484369105A105B10520F3C0906B04C3
:10094000D0906C04E0906D04F0906E04C114D1045A
:10095000E104F104B9F240E0C701B6010E941E04AF
:10096000882381F28091B0029091B102811592406A
:1009700049F6A091B502AA2329F26091B3027091C1
:10098000B4026115710509F4BDCF2091B202222392
:1009900009F4B8CFA09362052093540590E080E05D
:1009A00030E0E1E0F0E0C82FAF01082E02C0440FB4
:1009B000551F0A94E2F72417350769F041E0480F04
:1009C00001968930910579F740935D059BCFC12C45
:1009D000D12C7601C0CF80935D052091BB02309170
:1009E000BC0250E040E02115310541F42091C902DC
:1009F0003091CA024091CB025091CC022093550510
:100A000030935605409357055093580546015701BA
:100A1000860E971EA11CB11C8092630590926405FE
:100A2000A0926505B0926605E091B602F091B7021A
:100A3000F0936905E0936805B0E00E943614DC018C
:100A4000CB01880D991DAA1DBB1D80936A0590934B
:100A50006B05A0936C05B0936D0525E0EE0FFF1FAD
:100A60002A95E1F7E150FE4FEF2FFF27E6958E0F15
:100A70009F1FA11DB11D80935E0590935F05A093FC
:100A80006005B09361058090B8029090B902B12CD6
:100A9000A12C8114910441F48090C5029090C6026B
:100AA000A090C702B090C802C81AD90AEA0AFB0A85
:100AB000C80CD91CEA1CFB1C04C0F694E794D7941C
:100AC000C794CA95D2F7C0925905D0925A05E092C0
:100AD0005B05F0925C0585EFC8168FE0D806E1044F
:100AE000F10428F48CE08093670581E00CCF80E16D
:100AF00025EFC2162FEFD206E104F104A0F3809196
:100B0000D1029091D202A091D302B091D4028093ED
:100B10006A0590936B05A0936C05B0936D0580E218
:100B2000E2CF4F925F926F927F928F929F92AF929D
:100B3000BF92CF92DF92EF92FF920F931F93CF93CA
:100B4000DF93EC01423051056105710590F480E0BE
:100B5000DF91CF911F910F91FF90EF90DF90CF9099
:100B6000BF90AF909F908F907F906F905F904F90CD
:100B7000089589859A85AB85BC850196A11DB11D17
:100B800084179507A607B70710F3CB88DC88ED8894
:100B9000FE888F89803109F042C0BB27A72F962F8E
:100BA000852F480159012A013B01C80ED91EEA1EB2
:100BB000FB1E8091000190910101A0910201B09172
:100BC0000301C816D906EA06FB0699F58F8980311C
:100BD000C1F5B301A201552766277727440F551F9A
:100BE0004B555D4FFA01918280828091A402816011
:100BF0008093A4028A89823080F08D819E81AF81AA
:100C0000B8858C0D9D1DAE1DBF1D80935002909325
:100C10005102A0935202B093530281E099CFDB01BD
:100C2000CA01E7E0B695A79597958795EA95D1F71C
:100C3000B8CF40E0C701B6010E941E048111C6CFA3
:100C400086CFB301A2014F77552766277727440F38
:100C5000551F440F551F4B555D4FFA0180829182FD
:100C6000A282B382C2CF8F929F92AF92BF92CF9255
:100C7000DF92EF92FF920F931F93CF93DF93FC01CC
:100C800081859285A385B4850196A11DB11D841728
:100C90009507A607B70770F480E0DF91CF911F9109
:100CA0000F91FF90EF90DF90CF90BF90AF909F900B
:100CB0008F90089583889488A588B6888789803125
:100CC00089F5BB27A72F962F852FE9016A017B01A4
:100CD0008F01BC01CD01680D791D8A1D9B1D80907F
:100CE000000190900101A0900201B09003018616CE
:100CF0009706A806B90601F5F8018789803111F534
:100D0000DD24EE24FF24F601EE0FFF1FEB55FD4F0F
:100D100080819181B0E0A0E088839983AA83BB831E
:100D200081E0BBCFDB01CA01C7E0B695A7959795D7
:100D30008795CA95D1F7C9CF40E00E941E04811162
:100D4000DBCFAACFE894C7F8DD24EE24FF24F60118
:100D5000EE0FFF1FEE0FFF1FEB55FD4F80819181BE
:100D6000A281B381BF70D8CF4F925F926F927F9272
:100D7000AF92BF92CF92DF92EF92FF920F931F93A9
:100D8000CF93DF9300D000D0CDB7DEB78C0149837D
:100D90005A836B837C835901C12CD12C7601412C61
:100DA00082E0582E612C712C49815A816B817C81A3
:100DB0009E012F5F3F4FC8010E943306882339F1FF
:100DC000F8018585A301920104C0220F331F441F3F
:100DD000551F8A95D2F7DA01C901C80ED91EEA1E3D
:100DE000FB1E49815A816B817C818789803111F199
:100DF00088EF9FEFAFEFBFE0481759076A077B07FF
:100E000098F2F501C082D182E282F38281E00F90F4
:100E10000F900F900F90DF91CF911F910F91FF9046
:100E2000EF90DF90CF90BF90AF907F906F905F90EA
:100E30004F90089588EF9FEFA0E0B0E0DDCFCF9313
:100E4000DF93FC012581222321F080E0DF91CF9107
:100E50000895EC0180916705803159F582E0858322
:100E6000178A108E118E128E8091680590916905F7
:100E7000B0E0A0E025E0880F991FAA1FBB1F2A95AC
:100E8000D1F7838B948BA58BB68B80E595E09C8FF7
:100E90008B8F81E08C831E821F82188619861A86AA
:100EA0001B861C861D861E861F86188A198A1A8A2A
:100EB000CDCF803251F683E0858340916A05509111
:100EC0006B0560916C0570916D05478B508F618F3C
:100ED000728F9F012D5E3F4F80E595E00E94B40622
:100EE0008111D3CFB2CF8F929F92AF92BF92CF9208
:100EF000DF92EF92FF920F931F93CF93DF93EC015A
:100F00008D8181110EC080E0DF91CF911F910F91F3
:100F1000FF90EF90DF90CF90BF90AF909F908F9019
:100F200008950B891C892D893E890417150726070A
:100F3000370748F34A015B01823031F48A869B8689
:100F4000AC86BD8681E0E0CF81149104A104B10498
:100F500049F41E821F82188619861A861B861C86F3
:100F60001D86F0CF0A851B852C853D85EB8DFC8D7C
:100F7000858590E00996B901A801415051096109A0
:100F80007109082E04C076956795579547950A9480
:100F9000D2F775016401E1E0CE1AD108E108F10849
:100FA00004C0F694E794D794C7948A95D2F7C416F0
:100FB000D506E606F70620F0012B022B032B11F5D0
:100FC0008F89988DA98DBA8D8E839F83A887B987C5
:100FD0008E010A5F1F4FC114D104E104F10409F42A
:100FE000ADCF4E815F816885798598018B8D9C8D11
:100FF0000E94330691E0C91AD108E108F108811175
:10100000EACF81CFC41AD50AE60AF70AE1CF3F92A8
:101010004F925F926F927F928F929F92AF92BF9208
:10102000CF92DF92EF92FF920F931F93CF93DF93B4
:10103000CDB7DEB72C970FB6F894DEBF0FBECDBF8D
:101040005C01DC015B968D909C905C9716964D90B0
:101050005D906D907C901997411451046104710466
:1010600009F468C0BFEF4B1A5B0A6B0A7B0A312C8C
:10107000F40181859285A385B4859C01AD012F5F24
:101080003F4F4F4F5F4F29873A874B875C877301EC
:1010900062011D821E821F821886F401818592855D
:1010A000A385B4852D813E814F8158852817390746
:1010B0004A075B0708F056C089859A85AB85BC85D1
:1010C0008C159D05AE05BF0550F482E0C82ED12CCD
:1010D000E12CF12C92E0492E512C612C712C9E01B7
:1010E0002F5F3F4FB701A601C4010E94330688233A
:1010F000C9F189819A81AB81BC81892B8A2B8B2B89
:1011000009F1260137019FEF491A590A690A790A3C
:101110002D813E814F8158852F5F3F4F4F4F5F4F4D
:101120002D833E834F8358873FEFC31AD30AE30AC8
:10113000F30AB3CFF401408051806280738033247E
:10114000339496CFC414D504E604F70409F70FEFDF
:101150001FEF2FEF3FE0B701A601C4010E949105E8
:10116000811119C080E02C960FB6F894DEBF0FBE37
:10117000CDBFDF91CF911F910F91FF90EF90DF9046
:10118000CF90BF90AF909F908F907F906F905F9027
:101190004F903F900895D50116964D915D916D91B8
:1011A0007C911997411551056105710539F0970139
:1011B0008601C4010E9491058823A1F2D5011696EB
:1011C000CD92DD92ED92FC921997332051F0D70128
:1011D000C6010196A11DB11DF40180839183A283F4
:1011E000B383F5018789908DA18DB28D892B8A2BD0
:1011F0008B2B39F48481C78AD08EE18EF28E806881
:101200008483F50184818062848381E0ACCF2F9256
:101210003F924F925F926F927F928F929F92AF9286
:10122000BF92CF92DF92EF92FF920F931F93CF93D3
:10123000DF93EC015B012A018D81811115C08FEFD5
:101240009FEFDF91CF911F910F91FF90EF90DF9073
:10125000CF90BF90AF909F908F907F906F905F9056
:101260004F903F902F9008958C8180FFE8CF0B899D
:101270001C892D893E894A855B856C857D85C201E7
:10128000B0E0A0E068017901C41AD50AE60AF70ABD
:10129000C816D906EA06FB0618F42801441A550AAE
:1012A00042011E0126E0220E311C8114910409F432
:1012B000B3C04A855B856C857D856A0181E0D82253
:1012C0008B8D9C8D8A019B01E9E0369527951795BA
:1012D0000795EA95D1F7ED81E230E1F5FC01628DE9
:1012E000738D848D958D600F711F821F931F612CEC
:1012F00022E0722E6C187D088614970408F43401DD
:101300002C8126FD04C06114F2E07F0671F4009187
:101310000001109101012091020130910301061793
:1013200017072807390709F053C040E00E941E0440
:10133000882309F484CFC6018B559D4FD5019C01AC
:10134000260D371DFC012E173F0709F460C041919F
:101350004D93F9CFFC0174807A947022C114D104AA
:1013600071F471100CC0452B462B472B39F58F8932
:10137000988DA98DBA8D8E839F83A887B987EB8DB1
:10138000FC8D6E817F818885998562507109810904
:101390009109258504C0660F771F881F991F2A951C
:1013A000D2F70685178520893189600F711F821F4A
:1013B000931F670D711D811D911D99CF4E815F8116
:1013C0006885798591010E9433068111D8CF37CF86
:1013D000750183019601AB01BC018091A20290913D
:1013E000A3020E94BF02882309F429CFA60CB71CD0
:1013F0008A859B85AC85BD85860D971DA11DB11D78
:101400008A879B87AC87BD87861897084ECF281B95
:10141000390BA20EB31EECCFC20113CF1F93CF9393
:10142000DF93FC0125812223D1F1162FEC01848169
:1014300087FF2AC0668577858089918941E00E946F
:101440001E04882361F1EA8980E2E89FF0011124FB
:10145000EB55FD4F309719F18D81823040F48B8927
:101460009C89AD89BE89848F958FA68FB78F8F8910
:10147000988D938F828F8F89988DA98DBA8DB58B1A
:10148000A48B8C818F778C83111103C08C818F7E0C
:101490008C83812FDF91CF911F910C94F30380E017
:1014A000DF91CF911F910895FF920F931F93CF93D8
:1014B000DF93EC018D81813041F090E080E0DF919D
:1014C000CF911F910F91FF9008958C8181FFF5CFEF
:1014D00082FD1BC00091A2021091A302C8010E94CC
:1014E0004C020E942B02F82EC8010E9419028FEFB5
:1014F000F812E3CF8C8185FF1BC060E0CE010E9413
:101500000E0A8C818F7D8C83D8CF4B895C896D8945
:101510007E898A859B85AC85BD8584179507A6073E
:10152000B707C1F2CE010E9473078111D3CFC5CF97
:1015300040915002509151026091520270915302B9
:10154000452B462B472B21F080E00E94CF03B5CFDF
:1015500080618C832A853B85317080E092E0821B1C
:10156000930BADCFCF93DF93EC0161E00E940E0AA5
:10157000882311F01D8281E0DF91CF9108952F9291
:101580003F924F925F926F927F928F929F92AF9213
:10159000BF92CF92DF92EF92FF920F931F93CF9360
:1015A000DF9300D000D01F92CDB7DEB77C015B0186
:1015B000342E5D83DC0115968C911597813009F0EE
:1015C000CEC014962C9021FECAC022FCB4C0C32CFD
:1015D000DD8022947FE027222094B22DB1702B2E43
:1015E000D7011A964D915D916D917C911D97C11413
:1015F000D10409F428C15B968D919C915C97FC0104
:1016000074807A948A019B0169E036952795179535
:1016100007956A95D1F770228A011170711020C068
:1016200001151105E9F416964D915D916D917C912E
:101630001997411551056105710509F099C0579633
:101640008D919D910D90BC91A02D0097A105B105A4
:1016500009F0B0C0C7010E940708882309F47FC0C1
:1016600080E092E0801B910B46018C159D0508F4EB
:101670004C01D7015B964D915C915C9716968D91CC
:101680009D910D90BC91A02D0297A109B109FA017D
:10169000258504C0880F991FAA1FBB1F2A95D2F762
:1016A0004685578560897189840F951FA61FB71FCE
:1016B0009C01AD01270D311D411D511D29013A012C
:1016C000811432E0930609F07BC080910001909173
:1016D0000101A0910201B091030184159505A605B1
:1016E000B70559F48FEF9FEFDC01809300019093D1
:1016F0000101A0930201B0930301022D9501B301F2
:10170000A2018091A2029091A3020E94610388230A
:1017100031F19EEFB91AC818D908F701828593856F
:10172000A485B585880D991DA11DB11D828793875C
:10173000A487B58755CFF701438954896589768990
:1017400082859385A485B585481759076A077B0765
:1017500009F43DCFC7010E947307811138CF81E0A2
:1017600090E0D70113969C938E93129780E007C068
:101770009E012F5F3F4F0E943306811102C090E00F
:1017800079C089819A81AB81BC81F701238D348D29
:10179000F901278948EF5FEF60E070E0203121F028
:1017A00048EF5FEF6FEF7FE084179507A607B70755
:1017B00008F050CFF70186839783A087B18750CF79
:1017C0000115110599F5D7011A964D915D916D910D
:1017D0007C911D9753968D919D910D90BC91A02D5C
:1017E000481759076A077B0708F181E00E94F30355
:1017F000882309F4B4CF4092000150920101609215
:101800000201709203018091A40281608093A4027E
:10181000C8018B559D4FD5019C01280D391DFC0138
:101820002E173F0759F04D914193FACF41E0C30184
:10183000B2010E941E048111EBCF91CF281B390BFE
:10184000A20EB31E68CFF70183899489A589B68952
:1018500084179507A607B70738F48481438B548B08
:10186000658B768B80688483F701848183FD1AC041
:10187000832D9D810F900F900F900F900F90DF910F
:10188000CF911F910F91FF90EF90DF90CF90BF907D
:10189000AF909F908F907F906F905F904F903F9010
:1018A0002F90089561E0C7010E940E0A882309F471
:1018B00056CFDECFCF93DF931F92CDB7DEB76983CC
:1018C00041E050E0BE016F5F7F4F0E94BF0A0F9062
:1018D000DF91CF910895FC01DB0112968D919C91CF
:1018E00013979383828382E391E09183808314969C
:1018F0008C911497848315968C91159785831696F1
:101900004D915D916D917C911997468357836087C6
:1019100071871A964D915D916D917C911D974287CB
:101920005387648775871E964D915D916D917C916B
:10193000519746875787608B718B52968C9152973F
:10194000828B53964D915D916D917C915697438B0F
:10195000548B658B768B57964D915D916D917C91F3
:101960005A97478B508F618F728F5B968D919C91A8
:10197000948F838F08950895FC01818D928D009737
:1019800019F061E00C940E0A0895DC015996ED916E
:10199000FC913097B9F083899489A589B6894285ED
:1019A000538564857585841B950BA60BB70B811534
:1019B00020E89207A105B10538F08FEF9FE7A0E07E
:1019C000B0E0089590E080E00895DC0159968D9193
:1019D0009C91009739F0DC01ED91FC910480F58138
:1019E000E02D099490E080E00895CF93DF93EC011F
:1019F000E98DFA8D309749F481E090E09B838A83EA
:101A000090E080E0DF91CF91089513821282898D5A
:101A10009A8D0E94BF0AE98DFA8D22813381232B92
:101A200059F7F0CFCF93DF931F92CDB7DEB769831D
:101A3000DC01ED91FC910280F381E02D41E050E06A
:101A4000BE016F5F7F4F09950F90DF91CF91089591
:101A5000CF93DF931F92CDB7DEB741E050E0BE01D8
:101A60006F5F7F4F0E940709019731F4898190E0F1
:101A70000F90DF91CF9108958FEF9FEFF9CFFC0189
:101A8000818D928D009711F00C94280D8FEF9FEFB0
:101A900008950F931F93CF93DF93EC01898D9A8D57
:101AA00010E000E0009799F00E94280D8C010F3F94
:101AB000100769F0898D9A8DFC01428553856485F4
:101AC000758541505109610971090E947307C80168
:101AD000DF91CF911F910F910895FC01019000209B
:101AE000E9F73197AF01481B590BBC0185EA94E037
:101AF0000C94AE00CF93DF930E946D0DEC018AE34E
:101B000091E00E946D0D8C0F9D1FDF91CF91089584
:101B1000CF92DF92EF92FF921F93CF93DF938DE3EB
:101B200091E00E947A0D80917305882321F08EE662
:101B300095E00E94B20A10924F0510924D05109246
:101B40004A05109249058AE0809348050E940702E1
:101B5000EB01809148050E948F0061E0809148056B
:101B60000E94BB011FB7F8948091A102811124C08B
:101B7000EAE9F0E08491EEEAF0E09491E82FF0E0F9
:101B8000EE0FFF1FEA57FF4FA591B491EC91E923A7
:101B900021F461E08AE00E94BB018AE00E948F008C
:101BA0008CB580618CBD8CB580648CBD8DE00E944D
:101BB0008F008BE00E948F008091A1028F5F809345
:101BC000A1021FBF82E580934205109243058091D8
:101BD0004205909143050E9449021AE08FEF0E944E
:101BE00024021150D9F784E495E00E944C0220E0D1
:101BF00030E0A90160E084E495E00E946202182FC1
:101C000080934E058130E1F00E9407026C1B7D0B32
:101C1000613D774060F381E08093490584E495E07D
:101C20000E9419028AE691E00E947A0D89E991E00A
:101C30000E947A0D8BED91E00E947A0D80E07CC0CD
:101C40002AEA31E040E050E068E084E495E00E9458
:101C5000620282FF2AC010934F0580914F05C12C6C
:101C6000D12C7601823029F4C12CD12CE12C80E4D6
:101C7000F82E20E030E0A90167E384E495E00E94BB
:101C80006202A701960169E284E495E00E94620283
:101C900080934E058823C1F00E9407026C1B7D0BC8
:101CA000613D774030F388E0B7CF14E00E942B020B
:101CB00080934E051150D1F78A3A11F082E0ACCFF3
:101CC00082E080934F05C9CF80914F058230D1F4D7
:101CD00020E030E0A9016AE384E495E00E9462021A
:101CE000882311F086E098CF0E942B02807C803CF4
:101CF00019F483E080934F050E942B020E942B026F
:101D00000E942B0284E495E00E94190280E58093F2
:101D100042051092430581E00E9468048823A1F0E7
:101D20008EE695E00E941F07882309F47BCF85E5A6
:101D300091E00E947A0D81E0DF91CF911F91FF9099
:101D4000EF90DF90CF90089580E00E946804882390
:101D500009F468CFE5CF0F931F93CF93DF93EC0186
:101D600080E2689FF0011124EB55FD4F6A8B809152
:101D7000000190910101A0910201B09103018E87B1
:101D80009F87A88BB98B0489158930E020E09801E2
:101D9000112700270F8B188F298F3A8F828D938DF3
:101DA000B0E0A0E0AC01BD01402B512B622B732BA6
:101DB0004F8B588F698F7A8F83858871A9F4848DB2
:101DC000958DA68DB78D8B8B9C8BAD8BBE8B81E05B
:101DD0008D8381E08C831E821F82188619861A8665
:101DE0001B861C861D8603C0803131F080E0DF91A8
:101DF000CF911F910F9108959E012D5E3F4F8B8DC6
:101E00009C8D0E94B406882389F384E0E1CFAF92D1
:101E1000BF92CF92DF92EF92FF920F931F93CF93D7
:101E2000DF93CDB7DEB72B970FB6F894DEBF0FBEAA
:101E3000CDBF6C01FE013196CE010C967F0120E2F0
:101E40002193E817F907E1F7DA0120E037E09D91E7
:101E5000B92E9923A9F19E32B9F43A3091F480E079
:101E60002B960FB6F894DEBF0FBECDBFDF91CF919A
:101E70001F910F91FF90EF90DF90CF90BF90AF90A8
:101E8000089528E03AE0E3CFE8EBF0E0849188237E
:101E900021F031969813FACFE2CF321700F38FED8D
:101EA000890F8E35E0F68FE9890F8A3118F440EEFC
:101EB000B42EB90EF701E20FF11DB0822F5FC7CF2C
:101EC0008981803261F28B01FB01838D948DF60153
:101ED000948F838FFB0116821782108611861286DB
:101EE000138614861586F80182859385A485B585A9
:101EF000438954896589768984179507A607B707AA
:101F000008F0ADCF25E0B695A795979587952A95CA
:101F1000D1F7F82FFF70AF2EF8018581823008F4D9
:101F20009ECFC8010E94280D97FD99CFF8018285A8
:101F30009385A485B5854F96A11DB11D8287938792
:101F4000A487B587F0E2AF9EB00111246B557D4F99
:101F50006115710509F483CFFB018081882309F1A4
:101F6000853E19F4B11032C01EC04BE050E0C701ED
:101F70000E946F16892B09F0B6CF6A2DC6012B96E9
:101F80000FB6F894DEBF0FBECDBFDF91CF911F918A
:101F90000F91FF90EF90DF90CF90BF90AF900C9497
:101FA000AB0EB1105CCFF601A28A80910001909136
:101FB0000101A0910201B091030186879787A08B50
:101FC000B18BFB018081882309F449CFBB24B394F2
:101FD0008ACFFC0180819181009711F00C94291522
:101FE0000895EF92FF920F931F93CF93DF93EC012D
:101FF0007B018A0188819981009729F02A813B81A0
:102000002417350788F4B8016F5F7F4F0E94B2151F
:10201000009791F0998388831B830A832C813D81EB
:10202000232B11F4FC0110821D830C83B7018881DE
:1020300099810E9499160CC088819981009711F0AE
:102040000E942915198218821D821C821B821A8205
:10205000CE01DF91CF911F910F91FF90EF900895E6
:10206000EF92FF920F931F93CF93DF93EC017B01CD
:102070008A011B821A8288EE93E0A0E0B0E08C8394
:102080009D83AE83BF838EE091E0998388838DE149
:1020900090E00E948D149A8F898F009779F02DE13E
:1020A000F701DC0101900D922A95E1F74CE050E038
:1020B000B801CE010C960E94A016188EDF91CF9128
:1020C0001F910F91FF90EF9008951F920F920FB6FE
:1020D0000F9211242F933F934F935F936F937F93AE
:1020E0008F939F93AF93BF93EF93FF9385EA94E011
:1020F0000E942C01FF91EF91BF91AF919F918F9121
:102100007F916F915F914F913F912F910F900FBEF3
:102110000F901F9018951F920F920FB60F921124D7
:102120002F938F939F93EF93FF93E091B504F091DA
:10213000B6048081E091BB04F091BC0482FD1BC019
:1021400090818091BE048F5F8F732091BF048217AE
:1021500041F0E091BE04F0E0EB55FB4F958F80938A
:10216000BE04FF91EF919F918F912F910F900FBE21
:102170000F901F9018958081F4CF1F920F920FB689
:102180000F9211242F933F938F939F93AF93BF93FD
:102190008091590290915A02A0915B02B0915C0229
:1021A0003091580223E0230F2D3758F50196A11DD9
:1021B000B11D209358028093590290935A02A09324
:1021C0005B02B0935C028091540290915502A09101
:1021D0005602B09157020196A11DB11D8093540281
:1021E00090935502A0935602B0935702BF91AF91BE
:1021F0009F918F913F912F910F900FBE0F901F9045
:10220000189526E8230F0296A11DB11DD2CFE5EA4D
:10221000F4E01382128288EE93E0A0E0B0E08483C1
:102220009583A683B78380E291E09183808385ECD8
:1022300090E09587848784EC90E09787868780EC90
:1022400090E0918B808B81EC90E0938B828B82EC81
:1022500090E0958B848B86EC90E0978B868B118E2B
:10226000128E138E148EE2E4F5E080E580831182F5
:10227000E4E4F5E0158216821186138682E090E090
:10228000A0E0B0E084879587A687B78713A215A63C
:1022900014A682E391E093A782A717A60E94880D57
:1022A00080938D050895CF93DF93CDB7DEB7CE59D8
:1022B000D1090FB6F894DEBF0FBECDBF789484B5B8
:1022C000826084BD84B5816084BD85B5826085BD32
:1022D00085B5816085BD80916E00816080936E00C0
:1022E00010928100809181008260809381008091B2
:1022F0008100816080938100809180008160809363
:1023000080008091B10084608093B1008091B00022
:1023100081608093B00080917A00846080937A001D
:1023200080917A00826080937A0080917A00816047
:1023300080937A0080917A00806880937A0010926E
:10234000C100E091B504F091B60482E08083E09191
:10235000B104F091B2041082E091B304F091B4049E
:102360008FEC80831092BD04E091B904F091BA041F
:1023700086E08083E091B704F091B80480818061A9
:102380008083E091B704F091B804808188608083F5
:10239000E091B704F091B804808180688083E09177
:1023A000B704F091B80480818F7D80830E94880DEE
:1023B00080938D058823B9F11DA21CA282E391E0D0
:1023C0009BA38AA31FA21C821B829A8389831E82DD
:1023D0008E010E5D1F4FC8010E941F07CE0101969E
:1023E0007C01380152E2A52E52E0B52E382E2F2C5A
:1023F0006FE270E0C5010E948516009709F499C04C
:10240000D5012C912F3209F045C0BFEFAB1ABB0AA2
:102410009E2D8F2D7301692E782E962D872D3701D5
:10242000E92EF82EE5CF84E292E00E947A0D8DE548
:10243000E82E82E0F82E10E3D70114964D915C91BE
:10244000159741155105A1F06D917C9185EA94E0B5
:102450000E94AE008AE391E00E946D0D19A218A3BC
:10246000CE0180960E946D0D8AE391E00E946D0D71
:10247000B6E0EB0EF11C1F5F1533F1F600E010E043
:1024800001151105E9F30E9418018823C9F30E9480
:102490000000F6CF8A198D3008F08CE0C82ED12CC0
:1024A000A601B501CE01845A9F4F0E94A016ECE50B
:1024B000F0E0EC0FFD1FEC0DFD1D1082C7010E9426
:1024C000B20AF7018581882329F123961FAE1EAE3B
:1024D000239782E391E021969FAF8EAF21972596B7
:1024E0001FAE2597D401AE5DBD4F4D018C9181117A
:1024F0002AC0BE01615C7F4F832D922D0E946B0C20
:1025000042E252E0632D722DCE0189589F4F0E9406
:10251000301044C0AE01445A5F4FB301C7010E945E
:10252000070F882391F2AC0CBD1CC3010E94B20AB4
:1025300074CFC501825292404C01B301CE01CF96B7
:102540000E946B0CCFCF1DA21CA282E391E09BA343
:102550008AA31FA225968FAD2597811146C1EB96C0
:102560001FAE1EAEEB9788EE93E0A0E0B0E0EF96D2
:102570008CAF9DAFAEAFBFAFEF978EE091E0E99625
:102580009FAF8EAFE997C057DF4F19821882C059AD
:10259000D040CD57DF4F1882C358D0408091990268
:1025A00081111DC04DE5E42E42E0F42EF7011182A9
:1025B0001082138212821582148250E040E06CE394
:1025C00071E0C7010E94F10FF6E0EF0EF11C49E93E
:1025D000E41642E0F40651F781E080939902F12C71
:1025E000E12C98EE492E93E0592E612C712C2EE0AF
:1025F000822E21E0922E3CE5C32ED12CCC0EDD1E86
:102600008CE0C80ED11CC057DF4FA880B980C059DC
:10261000D040D50115968C911597823008F4FAC0F8
:102620001A968D919D910D90BC91A02D8F71992737
:10263000AA27BB27892B8A2B8B2B09F0EBC040E202
:1026400050E0632D722DC5010E940709803209F008
:10265000E1C08981882309F4DDC0853E81F38E3293
:1026600071F38C8583FDEBCF23961FAE1EAE2397AF
:10267000E2E3F1E02196FFAFEEAF219725961FAE82
:102680002597632D722DE0E080E0DB019D91BD0177
:102690009032A9F0883051F422E930E02C0F3D1F30
:1026A0002E0F311DFEE2D901FC93EF5F22E930E0ED
:1026B0002C0F3D1F2E0F311DD9019C93EF5F8F5FB3
:1026C0008B3019F782E990E08C0F9D1F8E0F911DC2
:1026D000FC011082C057DF4F68817981C059D0401A
:1026E000AE014E565F4FCE01CF960E94070F882352
:1026F00009F490C0BE01615C7F4FC8010E946B0C61
:10270000AE014E565F4FB801CE01845A9F4F0E94D2
:102710003010E796EEADFFADE797309709F487CE1E
:102720008581882309F483CE823008F058C01BA22B
:102730001AA21DA21CA21FA21EA2F6010190002037
:10274000E9F73197AF014C195D09B601C8010E9444
:10275000F10F1A8219821C821B821E821D8244E0A4
:1027600050E069E472E0832D922D0E94F10F2EA1BA
:102770003FA14D815E812417350798F08AA19BA166
:10278000009779F069817A816115710551F0241BF8
:10279000350B820F931F0E949016BB24B394892B94
:1027A00009F0B12C832D922D0E94E90FBB20A1F0DE
:1027B00026E02E9DC0012F9D900D1124835A9D4F20
:1027C0006AA17BA161157105D9F14EA15FA10E949B
:1027D000F10FBFEFEB1AFB0AC8010E94E90FEAE014
:1027E000EE16F10409F00FCF22CEAD01BE01615CFF
:1027F0007F4FC8010E94070F882309F4B0CECE0195
:10280000CF960E94B20AB801832D922D0E946B0CC4
:10281000A40178CEA0961FAE1EAEA097A4964CAE93
:102820005DAE6EAE7FAEA4976E969FAE8EAE6E9787
:10283000E7961FAE1EAEE797A9961FAEA99769CF80
:10284000DC018D919C91009711F00E94291586E082
:102850008E9DF0018F9DF00D1124E35AFD4F1182E2
:1028600010821582148213821282B3CF0E947814D0
:10287000A59F900DB49F900DA49F800D911D1124D4
:1028800008952F923F924F925F926F927F928F9214
:102890009F92AF92BF92CF92DF92EF92FF920F93EF
:1028A0001F93CF93DF93CDB7DEB7CA1BDB0B0FB6F9
:1028B000F894DEBF0FBECDBF09942A8839884888B6
:1028C0005F846E847D848C849B84AA84B984C8844C
:1028D000DF80EE80FD800C811B81AA81B981CE0F43
:1028E000D11D0FB6F894DEBF0FBECDBFED01089528
:1028F000A29FB001B39FC001A39F700D811D112441
:10290000911DB29F700D811D1124911D0895EE0F30
:10291000FF1F0590F491E02D09940F931F93CF931F
:10292000DF938230910510F482E090E0E091900511
:10293000F091910530E020E0B0E0A0E0309799F40C
:102940002115310509F44AC0281B390B2430310503
:10295000D8F58A819B816115710589F1FB0193830B
:102960008283FE0111C04081518102811381481789
:102970005907E0F04817590799F4109761F012963B
:102980000C93129713961C933296CF01DF91CF913F
:102990001F910F9108950093900510939105F4CF26
:1029A0002115310551F04217530738F0A901DB0119
:1029B0009A01BD01DF01F801C1CFEF01F9CF90937A
:1029C000910580939005CDCFFE01E20FF31F819317
:1029D00091932250310939832883D7CF20918E05D6
:1029E00030918F05232B41F420910601309107018E
:1029F00030938F0520938E052091040130910501BD
:102A00002115310541F42DB73EB740910801509191
:102A10000901241B350BE0918E05F0918F05E2171B
:102A2000F307A0F42E1B3F0B2817390778F0AC01F1
:102A30004E5F5F4F2417350748F04E0F5F1F5093CE
:102A40008F0540938E05819391939FCFF0E0E0E056
:102A50009CCFCF93DF930097E9F0FC01329713826C
:102A60001282A0919005B0919105ED0130E020E037
:102A70001097A1F420813181820F931F20918E0540
:102A800030918F052817390709F061C0F0938F0541
:102A9000E0938E05DF91CF910895EA01CE17DF070D
:102AA000E8F54A815B819E0141155105B1F7E901C5
:102AB000FB83EA8349915991C40FD51FEC17FD0799
:102AC00061F4808191810296840F951FE9019983B9
:102AD0008883828193819B838A83F0E0E0E0129671
:102AE0008D919C9113970097B9F52D913C91119779
:102AF000CD010296820F931F20918E0530918F0594
:102B00002817390739F6309751F510929105109230
:102B10009005B0938F05A0938E05BCCFD383C2835D
:102B200040815181840F951FC817D90761F44E5F0A
:102B30005F4F88819981480F591F518340838A8153
:102B40009B81938382832115310509F0B0CFF093E7
:102B50009105E09390059ECFFD01DC01C0CF13826B
:102B60001282D7CFB0E0A0E0E8EBF5E10C9443147B
:102B70008C01009751F4CB010E948D148C01C80187
:102B8000CDB7DEB7E0E10C945F14FC01E60FF71F50
:102B90009C0122503109E217F30708F49DC0D901C6
:102BA000CD91DC911197C617D70798F0C530D105A4
:102BB00030F3CE0104978617970708F3C61BD70B8F
:102BC0002297C193D1936D937C93CF010E942915D5
:102BD000D6CF5B01AC1ABD0A4C018C0E9D1EA09194
:102BE0009005B0919105512C412CF12CE12C1097BE
:102BF00031F580918E0590918F058815990509F022
:102C00005CC04616570608F058C0809104019091A8
:102C10000501009741F48DB79EB74091080150918E
:102C20000901841B950BE817F90708F055C0F093CC
:102C30008F05E0938E05F90171836083A0CF8D919C
:102C40009C91119712966C90129713967C90139703
:102C5000A815B90559F56C0142E0C40ED11CCA147F
:102C6000DB0420F1AC014A195B09DA0112961597D1
:102C700080F06282738251834083D9016D937C938B
:102C8000E114F10471F0D7011396FC93EE931297BF
:102C900076CF22968C0F9D1FF90191838083F301DB
:102CA000EFCFF0939105E093900569CF4816590650
:102CB00008F42C017D01D3019ACFCB010E948D1421
:102CC0007C01009749F0AE01B8010E947C16C80152
:102CD0000E942915870153CF10E000E050CFFB017F
:102CE000DC0104C08D910190801921F441505040C5
:102CF000C8F7881B990B0895FB01DC0102C0019005
:102D00000D9241505040D8F70895FC0181918617EB
:102D100021F08823D9F7992708953197CF01089595
:102D2000FB01DC018D91019080190110D9F3990B01
:102D30000895FB01DC0101900D920020E1F7089558
:102D4000FB01DC014150504048F001900D92002001
:102D5000C9F701C01D9241505040E0F70895F89422
:022D6000FFCFA3
:102D6200FFFFFFFF00009205800000000000120D2F
:102D7200F50CE50CBC0CC50C3F0D490D0000000024
:102D82004E01AE00DB009B010C01EA00FE000000D8
:102D920000005A0CAE00540ABB0C0D0A00496E69C1
:102DA2007469616C697A696E672053442063617249
:102DB200642E2E2E005344206361726420696E6972
:102DC2007469616C697A65642E004661696C656438
:102DD20020746F20696E697469616C697A65205329
:102DE2004420636172642E205468696E6773207494
:102DF2006F20636865636B3A00312E20497320614E
:102E0200206361726420696E7365727465643F2029
:102E1200497320697420696E20746865207269673D
:102E2200687420666F726D61743F2046415431367A
:102E3200206F722046415433323F00322E20446FBD
:102E420075626C6520636865636B20796F757220AB
:102E5200776972696E672E204D49534F203D2031AC
:102E6200323B204D4F5349203D2031313B205343CB
:102E72004B203D2031333B204353203D2031303B1A
:102E820020002F00506C6561736520696E6974695A
:102E9200616C697A652074686520534420636172AD
:0E2EA2006420666972737421002E484154004A
:00000001FF
