:020000040000FA
:100000000C945D000C9485000C9485000C94850084
:100010000C9485000C9485000C9485000C9485004C
:100020000C9485000C9485000C9485000C9485003C
:100030000C9485000C9485000C9485000C9485002C
:100040000C94B40E0C9485000C94820E0C945C0EEF
:100050000C9485000C9485000C9485000C9485000C
:100060000C9485000C9485000000000024002700FB
:100070002A0000000000250028002B0004040404CE
:100080000404040402020202020203030303030342
:10009000010204081020408001020408102001021F
:1000A00004081020000000080002010000030407FB
:1000B0000000000000000000FE0E11241FBECFEF64
:1000C000D8E0DEBFCDBF20E1A0E5B7E001C01D92C2
:1000D000A839B207E1F717E0A0E0B1E0E6EBF3E200
:1000E00002C005900D92A035B107D9F710E0CDE51B
:1000F000D0E004C02197FE010E94CE11CC35D1077B
:10010000C9F70E94750F0C94D9110C940000AF929E
:10011000BF92CF92DF92EF92FF920F931F93CF93F4
:10012000DF936C017B018B01040F151FEB015E0156
:10013000AE18BF08C017D10759F06991D601ED91EB
:10014000FC910190F081E02DC6010995892B79F78A
:10015000C501DF91CF911F910F91FF90EF90DF903C
:10016000CF90BF90AF900895FC01538D448D252F03
:1001700030E0842F90E0821B930B541710F0CF9641
:10018000089501970895FC01918D828D981761F073
:10019000A28DAE0FBF2FB11D5D968C91928D9F5F8A
:1001A0009F73928F90E008958FEF9FEF0895FC0169
:1001B000918D828D981731F0828DE80FF11D858D1C
:1001C00090E008958FEF9FEF0895FC01918D228DAF
:1001D000892F90E0805C9F4F821B91098F73992734
:1001E000089588E89FE00E94E50021E0892B09F44A
:1001F00020E0822F089580E090E0892B29F00E9472
:10020000F10081110C9400000895FC01A48DA80F49
:10021000B92FB11DA35ABF4F2C91848D90E0019648
:100220008F739927848FA689B7892C93A089B18968
:100230008C91837080648C93938D848D981306C009
:100240000288F389E02D80818F7D80830895EF926D
:10025000FF920F931F93CF93DF93EC0181E0888F80
:100260009B8D8C8D98131AC0E889F989808185FF50
:1002700015C09FB7F894EE89FF896083E889F989F2
:1002800080818370806480839FBF81E090E0DF91F4
:10029000CF911F910F91FF90EF900895F62E0B8D47
:1002A00010E00F5F1F4F0F731127E02E8C8D8E1102
:1002B0000CC00FB607FCFACFE889F989808185FF69
:1002C000F5CFCE010E940501F1CFEB8DEC0FFD2F94
:1002D000F11DE35AFF4FF0829FB7F8940B8FEA8924
:1002E000FB8980818062CFCFCF93DF93EC01888D33
:1002F0008823B9F0AA89BB89E889F9898C9185FDA1
:1003000003C0808186FD0DC00FB607FCF7CF8C912E
:1003100085FFF2CF808185FFEDCFCE010E940501E0
:10032000E9CFDF91CF91089590E0FC01EC55FF4FAC
:100330002491FC01E057FF4F3491FC01E458FF4F3A
:10034000E491EE23C9F0222339F0233001F1A8F41F
:10035000213019F1223029F1F0E0EE0FFF1FEE58A5
:10036000FF4FA591B4918FB7F894EC91611126C01D
:1003700030953E233C938FBF08952730A9F0283055
:10038000C9F0243049F7809180008F7D03C08091AF
:1003900080008F7780938000DFCF84B58F7784BD16
:1003A000DBCF84B58F7DFBCF8091B0008F778093BA
:1003B000B000D2CF8091B0008F7DF9CF3E2BDACF45
:1003C000CF93DF9390E0FC01E057FF4F24918458D6
:1003D0009F4FFC0184918823D1F090E0880F991FF2
:1003E000FC01E859FF4FA591B491FC01EE58FF4F75
:1003F000C591D491623071F49FB7F8943C91822FEB
:10040000809583238C93E8812E2B28839FBFDF91D7
:10041000CF9108958FB7F894EC912E2B2C938FBF2A
:10042000F6CF3FB7F8948091780990917909A0911F
:100430007A09B0917B0926B5A89B05C02F3F19F01A
:100440000196A11DB11D3FBFBA2FA92F982F882754
:10045000BC01CD01620F711D811D911D42E0660F2F
:10046000771F881F991F4A95D1F708952FB7F894E1
:10047000609174097091750980917609909177095E
:100480002FBF089520916D07211109C021E020930D
:100490006D0730912510209126103CBD2DBD60E0E8
:1004A000FC0184810C94940161E0FC0184810E9430
:1004B000940180916D07811110926D0708958EBD92
:1004C00000000DB407FEFDCF8EB508958FEF0C949C
:1004D0005F020F931F93CF93DF93EC010E943602CC
:1004E0008B010E9466028F3F69F00E943602601BFA
:1004F000710B6C177D07A8F380E0DF91CF911F91FE
:100500000F91089581E0F9CFCF92DF92EF92FF92A1
:100510000F931F93CF93DF93EC01162F69017A019C
:100520008E81882389F08F8198859C012F5F3F4FB2
:1005300038872F838230924018F40E946602F3CFEE
:10054000CE010E9454021E82CE010E9442028CE221
:1005500091E00E946902812F80640E945F0208E19D
:1005600010E0D701C601002E04C0B695A795979557
:1005700087950A94D2F70E945F0208501109083F3C
:100580008FEF180771F78FEF0E945F0210E00E9453
:1005900066028A8787FF04C01F3F11F01F5FF7CFF5
:1005A000DF91CF911F910F91FF90EF90DF90CF904F
:1005B0000895CF92DF92EF92FF920F93CF93DF9344
:1005C000EC01690182E1411551056105710599F060
:1005D0008B85833039F089E0440F551F661F771FE4
:1005E0008A95D1F79A01AB0168E1CE010E9484029D
:1005F000882319F084E08D832DC08EEF0E945F0266
:1006000076018EEFD81AF70181917F010E945F0277
:10061000EC14FD04C1F78FEF0E945F028FEF0E9480
:100620005F020E9466028A878F71853071F4011122
:1006300016C0CE010E94540281E0DF91CF910F914C
:10064000FF90EF90DF90CF90089581E18D83CE01F0
:100650000E945402CE010E94540280E0EECF88E551
:1006600092E00E946902811102C085E1C4CF20E0BE
:1006700030E0A9016DE0CE010E948402882311F0D0
:1006800084E1B9CF0E9466028111FACFD2CF0F93D5
:1006900040916F07509170076091710770917207D8
:1006A000411551056105710589F0082F23E737E0F1
:1006B00090E080E00E94D902882349F010926F07F1
:1006C00010927007109271071092720781E00F91DB
:1006D00008950F93CF93C82F80916E07811105C0A5
:1006E000C1E08C2FCF910F9108954091000150915E
:1006F000010160910201709103010C2F23E737E0A3
:1007000090E080E00E94D902811102C0C0E0E9CFF0
:10071000CC2331F381E00E9447038823B9F3109280
:100720006E07DFCFAF92BF92CF92DF92EF92FF9230
:100730001F93CF93DF936B017C01142F80910001F5
:1007400090910101A0910201B09103018C159D05CA
:10075000AE05BF0509F4ADC081E00E94690388239E
:10076000E1F1809106008823A1F080910000909132
:100770000100A0910200B0910300C816D906EA0654
:10078000FB0639F48091070090910800892B09F449
:100790004FC0C0920000D0920100E0920200F0929F
:1007A000030080910B00A7019601833039F099E096
:1007B000220F331F441F551F9A95D1F761E190E036
:1007C00080E00E948402882391F083E080930500FA
:1007D00090E080E00E94540280E0DF91CF911F9171
:1007E000FF90EF90DF90CF90BF90AF9008950E9460
:1007F0003602EB010E94660280930A008F3F79F473
:100800000E9436026C1B7D0B6D32714098F38FE0B5
:100810008093050090E080E00E945402D9CF8E3F83
:10082000C1F5109208001092070081E08093060045
:10083000C3E7D7E083E7A82E89E0B82E0E946602BE
:100840008993AC16BD06D1F78091070090910800FE
:100850009E5F909308008093070020910900222357
:1008600019F081159240E8F0809106008823C9F0C4
:1008700080910700909108009C012F5F3F4F3093BB
:100880000800209307008230924028F40E946602FC
:10089000EFCF8DE0BDCF90E080E00E945402109237
:1008A0000600C0920001D0920101E0920201F09294
:1008B000030140916E07412B40936E0781E08DCF7D
:1008C0004F925F926F927F928F929F92AF92BF9260
:1008D000CF92DF92EF92FF920F931F93CF93DF930C
:1008E000EC01423051056105710590F480E0DF9123
:1008F000CF911F910F91FF90EF90DF90CF90BF901D
:10090000AF909F908F907F906F905F904F900895E1
:1009100089859A85AB85BC850196A11DB11D84177B
:100920009507A607B70710F3CB88DC88ED88FE880B
:100930008F89803109F042C0BB27A72F962F852FC2
:10094000480159012A013B01C80ED91EEA1EFB1EAF
:100950008091000190910101A0910201B0910301E9
:10096000C816D906EA06FB0699F58F898031C1F5CC
:10097000B301A201552766277727440F551F4D580D
:10098000584FFA019182808280916E078160809336
:100990006E078A89823080F08D819E81AF81B88513
:1009A0008C0D9D1DAE1DBF1D80936F07909370072A
:1009B000A0937107B093720781E099CFDB01CA0160
:1009C000E7E0B695A79597958795EA95D1F7B8CFC3
:1009D00040E0C701B6010E9492038111C6CF86CFC5
:1009E000B301A2014F77552766277727440F551F7C
:1009F000440F551F4D58584FFA0180829182A282B0
:100A0000B382C2CF8F929F92AF92BF92CF92DF926A
:100A1000EF92FF920F931F93CF93DF93FC01818599
:100A20009285A385B4850196A11DB11D84179507F4
:100A3000A607B70770F480E0DF91CF911F910F9167
:100A4000FF90EF90DF90CF90BF90AF909F908F90EE
:100A5000089583889488A588B6888789803189F528
:100A6000BB27A72F962F852FE9016A017B018F01F4
:100A7000BC01CD01680D791D8A1D9B1D8090000170
:100A800090900101A0900201B09003018616970694
:100A9000A806B90601F5F8018789803111F5DD2432
:100AA000EE24FF24F601EE0FFF1FED58F84F808172
:100AB0009181B0E0A0E088839983AA83BB8381E021
:100AC000BBCFDB01CA01C7E0B695A795979587957F
:100AD000CA95D1F7C9CF40E00E9492038111DBCFC4
:100AE000AACFE894C7F8DD24EE24FF24F601EE0F28
:100AF000FF1FEE0FFF1FED58F84F80819181A281FB
:100B0000B381BF70D8CF8F929F92AF92BF92CF9296
:100B1000DF92EF92FF920F931F93CF93DF93EC013D
:100B20008D8181110EC080E0DF91CF911F910F91D7
:100B3000FF90EF90DF90CF90BF90AF909F908F90FD
:100B400008950B891C892D893E89041715072607EE
:100B5000370748F34A015B01823031F48A869B866D
:100B6000AC86BD8681E0E0CF81149104A104B1047C
:100B700049F41E821F82188619861A861B861C86D7
:100B80001D86F0CF0A851B852C853D85EB8DFC8D60
:100B9000858590E00996B901A80141505109610984
:100BA0007109082E04C076956795579547950A9464
:100BB000D2F775016401E1E0CE1AD108E108F1082D
:100BC00004C0F694E794D794C7948A95D2F7C416D4
:100BD000D506E606F70620F0012B022B032B11F5B4
:100BE0008F89988DA98DBA8D8E839F83A887B987A9
:100BF0008E010A5F1F4FC114D104E104F10409F40E
:100C0000ADCF4E815F816885798598018B8D9C8DF4
:100C10000E94020591E0C91AD108E108F10881118A
:100C2000EACF81CFC41AD50AE60AF70AE1CF3F928C
:100C30004F925F926F927F928F929F92AF92BF92EC
:100C4000CF92DF92EF92FF920F931F93CF93DF9398
:100C5000CDB7DEB72C970FB6F894DEBF0FBECDBF71
:100C60005C01DC015B968D909C905C9716964D9094
:100C70005D906D907C90199741145104610471044A
:100C800009F468C0BFEF4B1A5B0A6B0A7B0A312C70
:100C9000F40181859285A385B4859C01AD012F5F08
:100CA0003F4F4F4F5F4F29873A874B875C877301D0
:100CB00062011D821E821F821886F4018185928541
:100CC000A385B4852D813E814F815885281739072A
:100CD0004A075B0708F056C089859A85AB85BC85B5
:100CE0008C159D05AE05BF0550F482E0C82ED12CB1
:100CF000E12CF12C92E0492E512C612C712C9E019B
:100D00002F5F3F4FB701A601C4010E94020588234F
:100D1000C9F189819A81AB81BC81892B8A2B8B2B6C
:100D200009F1260137019FEF491A590A690A790A20
:100D30002D813E814F8158852F5F3F4F4F4F5F4F31
:100D40002D833E834F8358873FEFC31AD30AE30AAC
:100D5000F30AB3CFF4014080518062807380332462
:100D6000339496CFC414D504E604F70409F70FEFC3
:100D70001FEF2FEF3FE0B701A601C4010E946004FE
:100D8000811119C080E02C960FB6F894DEBF0FBE1B
:100D9000CDBFDF91CF911F910F91FF90EF90DF902A
:100DA000CF90BF90AF909F908F907F906F905F900B
:100DB0004F903F900895D50116964D915D916D919C
:100DC0007C911997411551056105710539F097011D
:100DD0008601C4010E9460048823A1F2D501169601
:100DE000CD92DD92ED92FC921997332051F0D7010C
:100DF000C6010196A11DB11DF40180839183A283D8
:100E0000B383F5018789908DA18DB28D892B8A2BB3
:100E10008B2B39F48481C78AD08EE18EF28E806864
:100E20008483F50184818062848381E0ACCF1F9349
:100E3000CF93DF93EC01162F8C8187FF2AC06E853C
:100E40007F858889998941E00E949203882361F116
:100E5000EA8980E2E89FF0011124ED58F84F3097BD
:100E600019F18D81823040F48B899C89AD89BE89CE
:100E7000848F958FA68FB78F8F89988D938F828F50
:100E80008F89988DA98DBA8DB58BA48B8C818F7726
:100E90008C83111103C08C818F7E8C83812FDF9115
:100EA000CF911F910C94690380E0DF91CF911F9146
:100EB00008951F93CF93DF93EC018D81813031F042
:100EC00090E080E0DF91CF911F9108958C8181FFA8
:100ED000F7CF82FD1BC090E080E00E9442020E949A
:100EE0006602182F90E080E00E9454021F3F41F7F5
:100EF0008C8185FF1EC08D81882321F060E0CE01AA
:100F00000E9417078C818F7D8C83DACF4B895C8997
:100F10006D897E898A859B85AC85BD8584179507FB
:100F2000A607B707C1F2CE010E9483058111D3CF76
:100F3000C7CF40916F075091700760917107709112
:100F40007207452B462B472B21F080E00E94470378
:100F5000B7CF80618C832A853B85317080E092E039
:100F6000821B930BAFCF9F92AF92BF92CF92DF9233
:100F7000EF92FF920F931F93CF93DF9300D000D097
:100F80001F92CDB7DEB78C016D83DC0115968C9175
:100F90001597813009F0B9C014968C9181FFB5C0C6
:100FA00082FD9FC0D8015B96ED91FC915C971A96EB
:100FB000AD90BD90CD90DC901D9794809A94B60131
:100FC000A50189E076956795579547958A95D1F75C
:100FD0009422B1E0BB22992009F49FC0D8015B960E
:100FE000ED91FC915C971696CD90DD90ED90FC9084
:100FF0001997B2E0CB1AD108E108F108858504C041
:10100000CC0CDD1CEE1CFF1C8A95D2F7468557855B
:1010100060897189C40ED51EE61EF71EC90CD11C4D
:10102000E11CF11CA114B10409F00AC1F8014285C8
:1010300053856485758583899489A589B689481700
:1010400059076A077B0708F4FBC081E00E94690327
:10105000882309F45AC0C0920001D0920101E092A5
:101060000201F092030180916E07816080936E0708
:10107000F501ED58F84F8D818083F80182859385C5
:10108000A485B5850196A11DB11D82879387A4878C
:10109000B5874389548965897689481759076A074E
:1010A0007B0738F42481838B948BA58BB68B2068C7
:1010B0002483D80114968C9183FD9FC081E090E039
:1010C0000F900F900F900F900F90DF91CF911F9185
:1010D0000F91FF90EF90DF90CF90BF90AF909F90D7
:1010E0000895F801438954896589768982859385B5
:1010F000A485B585481759076A077B0709F452CFBD
:10110000C8010E94830581114DCF81E090E0D80194
:1011100013969C938E93129749C0D80116964D91C1
:101120005D916D917C911997A114B10409F071C082
:10113000411551056105710589F557968D919D9170
:101140000D90BC91A02D0097A105B10509F04FC0ED
:10115000C8010E9417068823C1F2D8015B96ED9161
:10116000FC915C971696CD90DD90ED90FC901997D0
:10117000B2E0CB1AD108E108F108858504C0CC0C97
:10118000DD1CEE1CFF1C8A95D2F7468557856089C9
:101190007189C40ED51EE61EF71E48CF9E012F5F33
:1011A0003F4FCF010E940205811103C090E080E013
:1011B00087CF89819A81AB81BC81F801238D348DE1
:1011C000F901278948EF5FEF60E070E0203121F0FE
:1011D00048EF5FEF6FEF7FE084179507A607B7072B
:1011E00030F0C8010E9417068111F8CE8ECFF801A9
:1011F00086839783A087B187F1CEF8018581882304
:1012000009F483CF61E0C8010E941707811156CF0E
:101210007CCF6A017B01B2E0CB1AD108E108F1086A
:10122000858504C0CC0CDD1CEE1CFF1C8A95D2F712
:101230004685578560897189C40ED51EE61EF71E46
:1012400041E0C701B6010E949203811111CF5DCF29
:10125000089590E080E008950F931F93CF93DF935C
:1012600020916C072F5F322F377030936C0720FF6F
:101270002BC020E831FD2064347009F02062205F2B
:10128000FC01EC01239600E011E06485662329F05F
:1012900070E0C8010E947D116F5F6187322F369F19
:1012A000030E30E0311D1124311110C01682662367
:1012B00011F0615061873196EC17FD0731F7DF912E
:1012C000CF911F910F91089520E0D4CF31503683F4
:1012D000EECF4F925F926F927F928F92AF92BF92BA
:1012E000CF92DF92EF920F931F93CF93DF933C0146
:1012F000EB010E941102F30127853089621B730BF9
:101300006A307105B0F3F894E881F9817BB17860B7
:101310006BB1677F6BB9CA848F812C2D281B822FFC
:101320002F83BF844A805B801D850C85DE841F5F10
:101330000F5FD3949E813885A984EB844181D201CB
:1013400020E0C32F522F322F31814427889431114E
:10135000380F08F43FEF8195889410FD430F4795AF
:10136000889411FD430F4795889412FD430F4795CC
:10137000889413FD430F4795889414FD430F4795B8
:10138000889415FD430F4795889416FD430F4795A4
:10139000889417FD430F47958894232F1111242F0C
:1013A0008C0D422F002C7BB900C047FF6BB93081F8
:1013B0002227889400C000C0002C6BB93111390F6E
:1013C00000C0002C7BB900C046FF6BB908F43FEFAA
:1013D0009195889400C000C0002C6BB900FD230FCC
:1013E00000C0002C7BB900C045FF6BB927958894DD
:1013F00001FD230F00C000C0002C6BB92795889415
:1014000000C0002C7BB900C044FF6BB902FD230F64
:101410002795889400C000C0002C6BB903FD230FF2
:1014200000C0002C7BB900C043FF6BB9279588949E
:1014300004FD230F00C000C0002C6BB927958894D1
:1014400000C0002C7BB900C042FF6BB905FD230F23
:101450002795889400C000C0002C6BB906FD230FAF
:1014600000C0002C7BB900C041FF6BB92795889460
:1014700007FD230F00C000C0002C6BB9279588948E
:1014800000C0002C7BB900C040FF6BB9432F011195
:10149000422F9A0D00C000C0002C6BB900C000C0E4
:1014A000002C7BB900C047FF6BB93281222788949A
:1014B00000C000C0002C6BB931113C0F00C0002CE3
:1014C0007BB900C046FF6BB908F43FEFEB0DF11D8F
:1014D00000C000C0002C6BB9D0FC230F00C0002C52
:1014E0007BB900C045FF6BB927958894D1FC230FC9
:1014F00000C000C0002C6BB92795889400C0002C58
:101500007BB900C044FF6BB9D2FC230F27958894A8
:1015100000C000C0002C6BB9D3FC230F00C0002C0E
:101520007BB900C043FF6BB927958894D4FC230F87
:1015300000C000C0002C6BB92795889400C0002C17
:101540007BB900C042FF6BB9D5FC230F2795889467
:1015500000C000C0002C6BB9D6FC230F00C0002CCB
:101560007BB900C041FF6BB927958894D7FC230F46
:1015700000C000C0002C6BB92795889400C0002CD7
:101580007BB900C040FF6BB9432FD110422FC195EA
:1015900000C000C0002C6BB9CE0D00C000C07BB9EC
:1015A00000C047FF6BB931812227889400C000C07A
:1015B000002C6BB93111380F00C0002C7BB900C072
:1015C00046FF6BB908F43FEF8195889400C000C0D6
:1015D000002C6BB910FD230F00C0002C7BB900C09C
:1015E00045FF6BB92795889411FD230F00C000C0FB
:1015F000002C6BB92795889400C0002C7BB900C0E3
:1016000044FF6BB912FD230F2795889400C000C0DA
:10161000002C6BB913FD230F00C0002C7BB900C058
:1016200043FF6BB92795889414FD230F00C000C0B9
:10163000002C6BB92795889400C0002C7BB900C0A2
:1016400042FF6BB915FD230F2795889400C000C099
:10165000002C6BB916FD230F00C0002C7BB900C015
:1016600041FF6BB92795889417FD230F00C000C078
:10167000002C6BB92795889400C0002C7BB900C062
:1016800040FF6BB9432F1111422F8C0D00C000C0D9
:10169000002C6BB9119709F086CE20EE31E0D20113
:1016A0000E94B311DC01CB01F4E0B695A7959795A4
:1016B0008795FA95D1F730E020E0B901EAE94E9E2E
:1016C000040C611D5E9E600D711D1124650D711D60
:1016D000860F971FA11DB11D893E43E09407A10508
:1016E000B10508F434C0885E9340A109B10942E015
:1016F000B695A795979587954A95D1F747E0849F2A
:10170000080E211D949F200D311D1124290F311D1C
:1017100060916B0770E0860F971F820F931F4091B7
:101720007409509175096091760970917709292F94
:101730003327420F531F611D711D4093740950934D
:101740007509609376097093770980936B07789495
:101750000E941102F301708B6787DF91CF911F9177
:101760000F91EF90DF90CF90BF90AF908F907F90D0
:101770006F905F904F90089580E991E00895539A9B
:101780000895EF92FF920F931F93CF93DF93CDB7FE
:10179000DEB762970FB6F894DEBF0FBECDBF7C01F7
:1017A000DC011C968C917A8369835C834B835E8316
:1017B0004D830D871E872F87813001F5CE0101965D
:1017C0000E942C0983E0888B1A8A198AD701ED912F
:1017D000FC910484F585E02DBE016F5F7F4FC7014A
:1017E000099562960FB6F894DEBF0FBECDBFDF91AC
:1017F000CF911F910F91FF90EF9008951C861B864B
:101800001A86198618861F82DDCFEF92FF920F93FA
:101810001F93CF93DF93CDB7DEB762970FB6F894DF
:10182000DEBF0FBECDBF7C01DC011C968C917A839C
:1018300069835C834B835E834D830D871E872F876F
:101840008130F9F4CE0101960E942C09188A1A8A77
:10185000198AD701ED91FC910484F585E02DBE0134
:101860006F5F7F4FC701099562960FB6F894DEBF90
:101870000FBECDBFDF91CF911F910F91FF90EF90E1
:1018800008951C861B861A86198618861F82DECF4D
:1018900090E080E00895FC018585968508950F937A
:1018A0001F93CF93DF9300D01F92CDB7DEB7AB016C
:1018B00019821A821B82DC01ED91FC910190F0816A
:1018C000E02D00E010E020E0BE016F5F7F4F099542
:1018D0000F900F900F90DF91CF911F910F9108956E
:1018E0000E94D411CF93DF93EC0160E08E810E94BF
:1018F000940161E08E810E94940160E08E810E94DB
:1019000094018BE891E00197F1F7DF91CF91089571
:10191000CF92DF92EF92FF920F931F93CF93DF93BB
:101920006C017C0187E0E80EF11CD0E0C0E0062FDE
:1019300010E0B8010C2E02C0759567950A94E2F785
:101940006170F70181917F010E9494012196C4305A
:10195000D10579F7C601DF91CF911F910F91FF90CB
:10196000EF90DF90CF900C94720CCF92DF92EF92B9
:10197000FF920F931F93CF93DF93EC01F62E642F0A
:101980008C810E9494018D818F3F19F060E00E944C
:1019900094010F2D10E08F8584FF25C06E0187E034
:1019A000C80ED11CF12CE12CB8010E2C02C075958B
:1019B00067950A94E2F76170F60181916F010E94C8
:1019C0009401FFEFEF1AFF0A88E0E816F10461F7CF
:1019D000CE01DF91CF911F910F91FF90EF90DF909B
:1019E000CF900C94720CB80184E0759567958A9538
:1019F000E1F7CE010E94880C6F2DCE01DF91CF91CF
:101A00001F910F91FF90EF90DF90CF900C94880C76
:101A1000CF93DF93823029F490918C10986090934B
:101A20008C10809390101092911080E4809392100B
:101A300080E18093931080E58093941061E0809121
:101A400081100E94E001809182108F3F19F061E0C7
:101A50000E94E00161E0809183100E94E001CDE7E7
:101A6000D0E19E012D57304180918C1084FD0BC038
:101A700084E090E021962817390744F461E08E81D4
:101A80000E94E001EECF88E090E0F4CF8BE39DE090
:101A90000197F1F760E0809181100E94940160E06D
:101AA000809183100E949401809182108F3F19F0E1
:101AB00060E00E94940160918C1064FD45C063E079
:101AC0008DE790E10E94880CCBE4D6E4CE0101972B
:101AD000F1F763E08DE790E10E94880C2197F1F720
:101AE00063E08DE790E10E94880C83E592E0019726
:101AF000F1F762E08DE790E10E94880C60918C1014
:101B0000606240E08DE790E10E94B50C84E0809334
:101B10008D1040E06CE08DE790E10E94B50C40E054
:101B200061E08DE790E10E94B50C8BE39FE10197A6
:101B3000F1F782E080938E1040E066E08DE790E15F
:101B4000DF91CF910C94B50C606240E08DE790E19D
:101B50000E94B50C8BE496E40197F1F760918C102C
:101B6000606240E08DE790E10E94B50C83E592E071
:101B70000197F1F760918C10606240E08DE790E191
:101B80000E94B50CBBCF41E00E94B50C81E090E013
:101B90000895FC01128261E08FE00E94E00161E0A3
:101BA0008EE00E94E00162E085E00E94E00162E0D8
:101BB00086E00E94E00180916307811145C0109288
:101BC0005507109254078FEF809358078093590759
:101BD00080935A0780935B0780935C0780935D072F
:101BE00081E080935E071092600710925F07109269
:101BF0005707109256078091820990918309892B8B
:101C000031F482E597E09093830980938209E09113
:101C10005007F0915107309721F082E597E09583C6
:101C2000848382E597E09093510780935007109248
:101C300062071092610788E197E0909353078093C1
:101C4000520781E080936307539A88E899E0909364
:101C500055078093540780E092E09093600780934B
:101C60005F078091731090917410A0917510B091DE
:101C70007610843CF9E09F07A105B10520F484ECBF
:101C800099E0A0E0B0E08093731090937410A0935B
:101C90007510B093761085E08093701082E00E94FA
:101CA000080D40E061E08DE790E10E94B50C8BE308
:101CB0009FE10197F1F708951F920F920FB60F92CF
:101CC00011242F933F934F935F936F937F938F9341
:101CD0009F93AF93BF93EF93FF9388E89FE00E9499
:101CE0000501FF91EF91BF91AF919F918F917F91EE
:101CF0006F915F914F913F912F910F900FBE0F9079
:101D00001F9018951F920F920FB60F9211242F93C8
:101D10008F939F93EF93FF93E091980FF091990F1A
:101D20008081E0919E0FF0919F0F82FD1BC09081FA
:101D30008091A10F8F5F8F732091A20F821741F0C6
:101D4000E091A10FF0E0E857F04F958F8093A10F3D
:101D5000FF91EF919F918F912F910F900FBE0F9058
:101D60001F9018958081F4CF1F920F920FB60F929B
:101D700011242F933F938F939F93AF93BF938091A1
:101D8000740990917509A0917609B0917709309105
:101D9000730923E0230F2D3758F50196A11DB11DBE
:101DA000209373098093740990937509A093760921
:101DB000B09377098091780990917909A0917A0977
:101DC000B0917B090196A11DB11D80937809909374
:101DD0007909A0937A09B0937B09BF91AF919F9144
:101DE0008F913F912F910F900FBE0F901F901895DC
:101DF00026E8230F0296A11DB11DD2CFE8E8FFE02F
:101E00001382128288EE93E0A0E0B0E08483958391
:101E1000A683B7838AE297E09183808385EC90E084
:101E20009587848784EC90E09787868780EC90E0A4
:101E3000918B808B81EC90E0938B828B82EC90E095
:101E4000958B848B86EC90E0978B868B118E128E0F
:101E5000138E148EE5E2F0E180E580831182E7E2E3
:101E6000F0E1158216821186138682E090E0A0E0F0
:101E7000B0E084879587A687B78713A215A614A616
:101E80008CE397E093A782A717A6E0E7F0E18FEF36
:101E9000808312821182148613864FEF5FEFBA019E
:101EA0004783508761877287EDE7F0E113821282E2
:101EB00028E437E0318320839CE0948385838BE0A2
:101EC00086838AE0878389E0808788E0818787E04E
:101ED00082871386148615861686178681E00E94EF
:101EE000080D85E990E10C94C90DCF93DF9300D0E4
:101EF00000D0CDB7DEB7789484B5826084BD84B558
:101F0000816084BD85B5826085BD85B5816085BDF4
:101F100080916E00816080936E00109281008091AC
:101F20008100826080938100809181008160809334
:101F30008100809180008160809380008091B10059
:101F400084608093B1008091B00081608093B00084
:101F500080917A00846080937A0080917A00826018
:101F600080937A0080917A00816080937A008091DA
:101F70007A00806880937A001092C100E091980FF7
:101F8000F091990F82E08083E091940FF091950F8A
:101F90001082E091960FF091970F8FEC8083109252
:101FA000A00FE0919C0FF0919D0F86E08083E0915F
:101FB0009A0FF0919B0F808180618083E0919A0F4E
:101FC000F0919B0F808188608083E0919A0FF0915F
:101FD0009B0F808180688083E0919A0FF0919B0F26
:101FE00080818F7D8083CE0101960E94C90D8981F9
:101FF0009A81AB818093951090939610A09397103F
:1020000084E091E0909396108093951068EE262ED0
:1020100063E0362E70E0872E70E0972E0E9411024A
:102020002B013C0154E6C52ED12CE12CF12C0E9451
:1020300011026419750986099709683E7340810584
:102040009105A8F321E0C21AD108E108F10848EE91
:10205000440E43E0541E611C711CC114D104E10400
:10206000F10429F78091971090E001968F739927DA
:10207000809397102091951030919610A8E8B9E0C0
:10208000FC01EE0FFF1FE80FF91FE20FF31F408165
:102090004C93418111964C931197428112964C9327
:1020A000129701968034910511F490E080E0139628
:1020B000EFE0A838BE0721F7D09070108091731020
:1020C00090917410A0917510B0917610892B8A2B85
:1020D0008B2BD9F00E94110200918409109185097F
:1020E0002091860930918709601B710B820B930B3D
:1020F000009173101091741020917510309176102A
:102100006017710782079307C8F20E94110260935B
:102110008409709385098093860990938709E091DB
:102120007B10F0917C10309759F0409177105091CE
:1021300078106091791070917A108D2D0995D82EB4
:10214000E0908209F09083094D2C512C712C612C68
:10215000E114F10409F45AC0D7011C96BC91BC8368
:1021600080917110909172108436910510F4F701EE
:102170001486D701ED91FC91A280B38019821A8256
:102180001B82DD2079F1F701369610E000E0219105
:10219000222319F1C280CC2001F130E050E040E070
:1021A0002F5F3F4F4F4F5F4FC301B2010E946D1130
:1021B0009B01AC018C2D90E0B0E0A0E0BC01CD0112
:1021C0006F5F7F4F8F4F9F4F0E946D11A1E0B0E076
:1021D000AC0FBD1FA00FB11F8C930F5F1F4F0330BB
:1021E0001105A9F609811A812B81F70145855685CC
:1021F00062817381C701F5010995EC81D7011C96B5
:10220000EC931C971496ED90FC90A2CF80918009DE
:10221000909181098C010F5F1F4F109381090093EA
:1022200080094997A4F10E943602C0907C09D090A1
:102230007D09E0907E09F0907F099B01AC012C198B
:102240003D094E095F0921F421E030E040E050E013
:10225000029DB001039D700D129D700D1124072E7B
:10226000000C880B990B0E949111309372102093EF
:10227000711010928109109280090E9436026093B9
:102280007C0970937D0980937E0990937F09811466
:10229000910409F4C3CE0E94F100882309F4BECE54
:1022A0000E940000BBCE0E945E11A59F900DB49FBE
:1022B000900DA49F800D911D11240895A29FB0013F
:1022C000B39FC001A39F700D811D1124911DB29F6A
:1022D000700D811D1124911D0895DB018F939F9333
:1022E0000E945311BF91AF91A29F800D911DA39F9A
:1022F000900DB29F900D1124089597FB072E16F4B0
:10230000009407D077FD09D00E94BA1107FC05D0D0
:102310003EF4909581959F4F0895709561957F4FFC
:102320000895A1E21A2EAA1BBB1BFD010DC0AA1F16
:10233000BB1FEE1FFF1FA217B307E407F50720F02E
:10234000A21BB30BE40BF50B661F771F881F991FA9
:102350001A9469F760957095809590959B01AC01F2
:10236000BD01CF0108950E945E11B7FF0895821B41
:10237000930B0895AA1BBB1B51E107C0AA1FBB1FEB
:10238000A617B70710F0A61BB70B881F991F5A9501
:10239000A9F780959095BC01CD010895EE0FFF1F20
:1023A0000590F491E02D099481E090E0F8940C946C
:1023B000D911F894FFCFFFFFFFFF09AAFB09AAFB81
:1023C00009AAFB09AAFB09AAFB09AAFB0000000055
:1023D000000009AAFB09AAFB09AAFB09AAFB000045
:1023E0000000000009AAFB09AAFB09AAFB09AAFB35
:1023F00009AAFB09AAFB09AAFB00000000000000D3
:10240000000009AAFB09AAFB09AAFB09AAFB000014
:102410000000000000000000000009AAFB09AAFB60
:1024200000000000000000000000000009AAFB09F5
:10243000AAFB0000000000000000000000000000F7
:102440000000000000000000000009AAFB09AAFB30
:1024500009AAFB09AAFB09AAFB09AAFB00000000C4
:10246000000000000009AAFB09AAFB09AAFB09AAAF
:10247000FB00000000000000000009AAFB09AAFB05
:1024800009AAFB09AAFB09AAFB09AAFB0000000094
:10249000000009AAFB09AAFB09AAFB09AAFB000084
:1024A0000000000009AAFB09AAFB09AAFB09AAFB74
:1024B00009AAFB09AAFB09AAFB0000000000000909
:1024C000AAFB09AAFB09AAFB09AAFB09AAFB0000AF
:1024D0000000000000000000000009AAFB09AAFBA0
:1024E00009AAFB00000000000009AAFB09AAFB09D9
:1024F000AAFB000000000000000000000000000037
:102500000000000000000000000009AAFB09AAFB6F
:1025100009AAFB09AAFB09AAFB09AAFB0000000003
:10252000000000000009AAFB09AAFB09AAFB09AAEE
:10253000FB000000000000000000000000000000A0
:1025400009AAFB09AAFB000000000000000000002F
:10255000000009AAFB09AAFB00000000000000001F
:102560000000000000000000000000000009AAFBBD
:1025700009AAFB00000000000000000009AAFB09F6
:10258000AAFB00000000000009AAFB09AAFB00004A
:102590000000000000000000000009AAFB09AAFBDF
:1025A00009AAFB09AAFB09AAFB09AAFB09AAFB09BC
:1025B000AAFB000000000000000000000000000076
:1025C0000000000000000000000009AAFB09AAFBAF
:1025D00000000000000009AAFB09AAFB000000009F
:1025E000000000000000000000000009AAFB09AA8A
:1025F000FB000000000000000000000000000000E0
:1026000009AAFB09AAFB000000000000000000006E
:10261000000009AAFB09AAFB00000000000000005E
:102620000000000000000000000000000009AAFBFC
:1026300009AAFB00000000000000000009AAFB0935
:10264000AAFB00000000000009AAFB09AAFB000089
:102650000000000000000000000009AAFB09AAFB1E
:1026600000000009AAFB09AAFB00000009AAFB0957
:10267000AAFB00000000000009AAFB09AAFB09AAA6
:10268000FB09AAFB00000000000009AAFB09AAFB45
:1026900000000000000009AAFB09AAFB00000000DE
:1026A000000000000000000000000009AAFB09AAC9
:1026B000FB0000000000000000000000000000001F
:1026C00009AAFB09AAFB00000000000000000000AE
:1026D000000009AAFB09AAFB09AAFB09AAFB000042
:1026E0000000000000000000000000000009AAFB3C
:1026F00009AAFB00000000000000000009AAFB0975
:10270000AAFB09AAFB09AAFB09AAFB09AAFB09AAB9
:10271000FB09AAFB00000000000009AAFB09AAFBB4
:1027200000000009AAFB09AAFB00000009AAFB0996
:10273000AAFB00000000000009AAFB09AAFB09AAE5
:10274000FB09AAFB00000000000009AAFB09AAFB84
:1027500000000000000009AAFB09AAFB000000001D
:10276000000000000000000000000009AAFB09AA08
:10277000FB0000000000000000000000000000005E
:1027800009AAFB09AAFB00000000000000000000ED
:10279000000009AAFB09AAFB0000000000000000DD
:1027A0000000000009AAFB09AAFB00000009AAFB1F
:1027B00009AAFB00000000000000000009AAFB09B4
:1027C000AAFB09AAFB09AAFB09AAFB09AAFB09AAF9
:1027D000FB09AAFB00000000000009AAFB09AAFBF4
:1027E00000000000000000000000000009AAFB0932
:1027F000AAFB000000000000000000000000000034
:102800000000000000000000000009AAFB09AAFB6C
:1028100000000000000009AAFB09AAFB000000005C
:10282000000000000000000000000009AAFB09AA47
:10283000FB0000000000000000000000000000009D
:1028400009AAFB09AAFB000000000000000000002C
:10285000000009AAFB09AAFB09AAFB09AAFB0000C0
:102860000000000009AAFB09AAFB09AAFB09AAFBB0
:1028700009AAFB00000000000000000000000000AA
:10288000000000000000000009AAFB09AAFB0000EC
:102890000000000000000000000009AAFB09AAFBDC
:1028A00000000000000000000000000009AAFB0971
:1028B000AAFB000000000000000000000000000073
:1028C0000000000000000000000009AAFB09AAFBAC
:1028D00009AAFB09AAFB09AAFB09AAFB0000000040
:1028E000000000000009AAFB09AAFB09AAFB09AA2B
:1028F000FB09AAFB09AAFB00000000000000000081
:1029000009AAFB09AAFB000000000000000000006B
:10291000000009AAFB09AAFB09AAFB09AAFB0000FF
:102920000000000000000009AAFB09AAFB09AAFB9D
:1029300009AAFB00000000000000000000000000E9
:10294000000000000000000009AAFB09AAFB00002B
:102950000000000000000000000009AAFB09AAFB1B
:1029600000000000000000000000000009AAFB09B0
:10297000AAFB0000000000000000000000000000B2
:102980000000000000000000000009AAFB09AAFBEB
:1029900009AAFB09AAFB09AAFB09AAFB000000007F
:1029A000000000000009AAFB09AAFB09AAFB09AA6A
:1029B000FB09AAFB09AAFB00000000000000700C44
:1029C000700C700C4F0C4B0C480C00000000050CF8
:1029D000C10BBF0B4F0C4B0CBC0B69090000000076
:1029E00027018700B4007401E500C300D700000090
:1029F0000000B30787005907280900000000C30D35
:062A0000870029092809E6
:107E0000112484B714BE81FFF0D085E080938100F7
:107E100082E08093C00088E18093C10086E0809377
:107E2000C20080E18093C4008EE0C9D0259A86E02C
:107E300020E33CEF91E0309385002093840096BBD3
:107E4000B09BFECF1D9AA8958150A9F7CC24DD24C4
:107E500088248394B5E0AB2EA1E19A2EF3E0BF2EE7
:107E6000A2D0813461F49FD0082FAFD0023811F036
:107E7000013811F484E001C083E08DD089C08234E0
:107E800011F484E103C0853419F485E0A6D080C0E4
:107E9000853579F488D0E82EFF2485D0082F10E0AE
:107EA000102F00270E291F29000F111F8ED06801E7
:107EB0006FC0863521F484E090D080E0DECF843638
:107EC00009F040C070D06FD0082F6DD080E0C81688
:107ED00080E7D80618F4F601B7BEE895C0E0D1E017
:107EE00062D089930C17E1F7F0E0CF16F0E7DF06D8
:107EF00018F0F601B7BEE89568D007B600FCFDCFD4
:107F0000A601A0E0B1E02C9130E011968C91119780
:107F100090E0982F8827822B932B1296FA010C0160
:107F200087BEE89511244E5F5F4FF1E0A038BF0790
:107F300051F7F601A7BEE89507B600FCFDCF97BE46
:107F4000E89526C08437B1F42ED02DD0F82E2BD052
:107F50003CD0F601EF2C8F010F5F1F4F84911BD097
:107F6000EA94F801C1F70894C11CD11CFA94CF0C13
:107F7000D11C0EC0853739F428D08EE10CD085E9AC
:107F80000AD08FE07ACF813511F488E018D01DD067
:107F900080E101D065CF982F8091C00085FFFCCF94
:107FA0009093C60008958091C00087FFFCCF809118
:107FB000C00084FD01C0A8958091C6000895E0E648
:107FC000F0E098E1908380830895EDDF803219F02E
:107FD00088E0F5DFFFCF84E1DECF1F93182FE3DFCA
:107FE0001150E9F7F2DF1F91089580E0E8DFEE27F6
:047FF000FF270994CA
:027FFE00040479
:00000001FF
